{
  "_format": "hh-sol-artifact-1",
  "contractName": "PoolV3",
  "sourceName": "contracts/PoolV3.sol",
  "abi": [
    {
      "inputs": [],
      "stateMutability": "nonpayable",
      "type": "constructor"
    },
    {
      "anonymous": false,
      "inputs": [
        {
          "indexed": false,
          "internalType": "uint8",
          "name": "version",
          "type": "uint8"
        }
      ],
      "name": "Initialized",
      "type": "event"
    },
    {
      "anonymous": false,
      "inputs": [
        {
          "indexed": true,
          "internalType": "address",
          "name": "previousOwner",
          "type": "address"
        },
        {
          "indexed": true,
          "internalType": "address",
          "name": "newOwner",
          "type": "address"
        }
      ],
      "name": "OwnershipTransferred",
      "type": "event"
    },
    {
      "anonymous": false,
      "inputs": [
        {
          "indexed": false,
          "internalType": "uint256",
          "name": "ts",
          "type": "uint256"
        },
        {
          "indexed": false,
          "internalType": "uint256",
          "name": "interest",
          "type": "uint256"
        },
        {
          "indexed": false,
          "internalType": "uint256",
          "name": "numToken",
          "type": "uint256"
        }
      ],
      "name": "PumpPrice",
      "type": "event"
    },
    {
      "anonymous": false,
      "inputs": [
        {
          "indexed": false,
          "internalType": "uint256",
          "name": "ts",
          "type": "uint256"
        },
        {
          "indexed": false,
          "internalType": "uint256",
          "name": "totalReward",
          "type": "uint256"
        }
      ],
      "name": "UpdateReward",
      "type": "event"
    },
    {
      "stateMutability": "payable",
      "type": "fallback"
    },
    {
      "inputs": [],
      "name": "ADDRESS_BANK",
      "outputs": [
        {
          "internalType": "address",
          "name": "",
          "type": "address"
        }
      ],
      "stateMutability": "view",
      "type": "function"
    },
    {
      "inputs": [],
      "name": "ADDRESS_COIN",
      "outputs": [
        {
          "internalType": "address",
          "name": "",
          "type": "address"
        }
      ],
      "stateMutability": "view",
      "type": "function"
    },
    {
      "inputs": [],
      "name": "ADDRESS_NFTREWARD",
      "outputs": [
        {
          "internalType": "address",
          "name": "",
          "type": "address"
        }
      ],
      "stateMutability": "view",
      "type": "function"
    },
    {
      "inputs": [],
      "name": "ADDRESS_POSPOOL",
      "outputs": [
        {
          "internalType": "address",
          "name": "",
          "type": "address"
        }
      ],
      "stateMutability": "view",
      "type": "function"
    },
    {
      "inputs": [],
      "name": "ADDRESS_ROUTER",
      "outputs": [
        {
          "internalType": "address",
          "name": "",
          "type": "address"
        }
      ],
      "stateMutability": "view",
      "type": "function"
    },
    {
      "inputs": [],
      "name": "ADDRESS_TOKEN",
      "outputs": [
        {
          "internalType": "address",
          "name": "",
          "type": "address"
        }
      ],
      "stateMutability": "view",
      "type": "function"
    },
    {
      "inputs": [],
      "name": "ADDRESS_TREWARD",
      "outputs": [
        {
          "internalType": "address",
          "name": "",
          "type": "address"
        }
      ],
      "stateMutability": "view",
      "type": "function"
    },
    {
      "inputs": [],
      "name": "VERSION",
      "outputs": [
        {
          "internalType": "uint256",
          "name": "",
          "type": "uint256"
        }
      ],
      "stateMutability": "view",
      "type": "function"
    },
    {
      "inputs": [
        {
          "internalType": "uint256",
          "name": "val1",
          "type": "uint256"
        },
        {
          "internalType": "uint256",
          "name": "val2",
          "type": "uint256"
        },
        {
          "internalType": "uint256",
          "name": "val3",
          "type": "uint256"
        }
      ],
      "name": "debug",
      "outputs": [],
      "stateMutability": "nonpayable",
      "type": "function"
    },
    {
      "inputs": [],
      "name": "initialize",
      "outputs": [],
      "stateMutability": "nonpayable",
      "type": "function"
    },
    {
      "inputs": [],
      "name": "lastPumpPriceTime",
      "outputs": [
        {
          "internalType": "uint256",
          "name": "",
          "type": "uint256"
        }
      ],
      "stateMutability": "view",
      "type": "function"
    },
    {
      "inputs": [],
      "name": "lastUpdateTime",
      "outputs": [
        {
          "internalType": "uint256",
          "name": "",
          "type": "uint256"
        }
      ],
      "stateMutability": "view",
      "type": "function"
    },
    {
      "inputs": [],
      "name": "owner",
      "outputs": [
        {
          "internalType": "address",
          "name": "",
          "type": "address"
        }
      ],
      "stateMutability": "view",
      "type": "function"
    },
    {
      "inputs": [],
      "name": "pumpPrice",
      "outputs": [
        {
          "internalType": "uint256",
          "name": "",
          "type": "uint256"
        },
        {
          "internalType": "uint256",
          "name": "",
          "type": "uint256"
        }
      ],
      "stateMutability": "payable",
      "type": "function"
    },
    {
      "inputs": [],
      "name": "renounceOwnership",
      "outputs": [],
      "stateMutability": "nonpayable",
      "type": "function"
    },
    {
      "inputs": [
        {
          "internalType": "address",
          "name": "addrRouter",
          "type": "address"
        },
        {
          "internalType": "address",
          "name": "addrPP",
          "type": "address"
        },
        {
          "internalType": "address",
          "name": "addrCoin",
          "type": "address"
        },
        {
          "internalType": "address",
          "name": "addrToken",
          "type": "address"
        },
        {
          "internalType": "address",
          "name": "addrBank",
          "type": "address"
        },
        {
          "internalType": "address",
          "name": "addrNR",
          "type": "address"
        },
        {
          "internalType": "address",
          "name": "addrTR",
          "type": "address"
        }
      ],
      "name": "setup",
      "outputs": [],
      "stateMutability": "nonpayable",
      "type": "function"
    },
    {
      "inputs": [],
      "name": "stake",
      "outputs": [],
      "stateMutability": "payable",
      "type": "function"
    },
    {
      "inputs": [
        {
          "internalType": "address",
          "name": "newOwner",
          "type": "address"
        }
      ],
      "name": "transferOwnership",
      "outputs": [],
      "stateMutability": "nonpayable",
      "type": "function"
    },
    {
      "inputs": [],
      "name": "update",
      "outputs": [
        {
          "internalType": "uint256",
          "name": "",
          "type": "uint256"
        }
      ],
      "stateMutability": "nonpayable",
      "type": "function"
    },
    {
      "stateMutability": "payable",
      "type": "receive"
    }
  ],
  "bytecode": "0x60806040523480156200001157600080fd5b50620000226200002860201b60201c565b620001d3565b600060019054906101000a900460ff16156200007b576040517f08c379a0000000000000000000000000000000000000000000000000000000008152600401620000729062000176565b60405180910390fd5b60ff801660008054906101000a900460ff1660ff161015620000ed5760ff6000806101000a81548160ff021916908360ff1602179055507f7f26b83ff96e1f2b6a682f133852f6798a09c465da95921460cefb384740249860ff604051620000e49190620001b6565b60405180910390a15b565b600082825260208201905092915050565b7f496e697469616c697a61626c653a20636f6e747261637420697320696e69746960008201527f616c697a696e6700000000000000000000000000000000000000000000000000602082015250565b60006200015e602783620000ef565b91506200016b8262000100565b604082019050919050565b6000602082019050818103600083015262000191816200014f565b9050919050565b600060ff82169050919050565b620001b08162000198565b82525050565b6000602082019050620001cd6000830184620001a5565b92915050565b61236880620001e36000396000f3fe6080604052600436106101185760003560e01c80638da5cb5b116100a0578063c8f33c9111610064578063c8f33c9114610324578063df6240ac1461034f578063f1230fef1461037a578063f2fde38b146103a3578063ffa1ad74146103cc5761011f565b80638da5cb5b1461024f578063a1f646711461027a578063a2e62045146102a5578063b9cfe2a8146102d0578063c673e248146102fb5761011f565b80636bfd4bdf116100e75780636bfd4bdf146101ac5780636c8545ac146101d7578063715018a6146101f65780638129fc1c1461020d5780638b117e43146102245761011f565b8063165310c51461012157806326fc3f5d1461014c5780632c2b5a4b146101775780633a4b66f1146101a25761011f565b3661011f57005b005b34801561012d57600080fd5b506101366103f7565b60405161014391906117e8565b60405180910390f35b34801561015857600080fd5b5061016161041d565b60405161016e91906117e8565b60405180910390f35b34801561018357600080fd5b5061018c610443565b604051610199919061181c565b60405180910390f35b6101aa610449565b005b3480156101b857600080fd5b506101c16104ce565b6040516101ce91906117e8565b60405180910390f35b6101df6104f4565b6040516101ed929190611837565b60405180910390f35b34801561020257600080fd5b5061020b610598565b005b34801561021957600080fd5b506102226105ac565b005b34801561023057600080fd5b506102396106ea565b60405161024691906117e8565b60405180910390f35b34801561025b57600080fd5b50610264610710565b60405161027191906117e8565b60405180910390f35b34801561028657600080fd5b5061028f61073a565b60405161029c91906117e8565b60405180910390f35b3480156102b157600080fd5b506102ba610760565b6040516102c7919061181c565b60405180910390f35b3480156102dc57600080fd5b506102e5610dbe565b6040516102f291906117e8565b60405180910390f35b34801561030757600080fd5b50610322600480360381019061031d91906118a0565b610de4565b005b34801561033057600080fd5b50610339610fe1565b604051610346919061181c565b60405180910390f35b34801561035b57600080fd5b50610364610fe7565b60405161037191906117e8565b60405180910390f35b34801561038657600080fd5b506103a1600480360381019061039c919061196e565b61100d565b005b3480156103af57600080fd5b506103ca60048036038101906103c591906119c1565b61101a565b005b3480156103d857600080fd5b506103e161109d565b6040516103ee919061181c565b60405180910390f35b606860009054906101000a900473ffffffffffffffffffffffffffffffffffffffff1681565b606660009054906101000a900473ffffffffffffffffffffffffffffffffffffffff1681565b606e5481565b60004790506000683635c9adc5dea00000826104659190611a4c565b9050600081116104aa576040517f08c379a00000000000000000000000000000000000000000000000000000000081526004016104a190611ada565b60405180910390fd5b683635c9adc5dea00000816104bf9190611afa565b91506104ca826110a3565b5050565b606760009054906101000a900473ffffffffffffffffffffffffffffffffffffffff1681565b60008060003490506000810361050f5761050c61114e565b90505b60008082111561058c5761054582606a60009054906101000a900473ffffffffffffffffffffffffffffffffffffffff16611299565b905042606e819055507ff9f87a27e273a6cc844162b46d2644265249a4973bfd2da22b3cf3f732a5a17b606e54838360405161058393929190611b3c565b60405180910390a15b81819350935050509091565b6105a061157e565b6105aa60006115fc565b565b60008060019054906101000a900460ff161590508080156105dd5750600160008054906101000a900460ff1660ff16105b8061060a57506105ec306116c2565b1580156106095750600160008054906101000a900460ff1660ff16145b5b610649576040517f08c379a000000000000000000000000000000000000000000000000000000000815260040161064090611be5565b60405180910390fd5b60016000806101000a81548160ff021916908360ff1602179055508015610686576001600060016101000a81548160ff0219169083151502179055505b61068e6116e5565b80156106e75760008060016101000a81548160ff0219169083151502179055507f7f26b83ff96e1f2b6a682f133852f6798a09c465da95921460cefb384740249860016040516106de9190611c57565b60405180910390a15b50565b606a60009054906101000a900473ffffffffffffffffffffffffffffffffffffffff1681565b6000603360009054906101000a900473ffffffffffffffffffffffffffffffffffffffff16905090565b606b60009054906101000a900473ffffffffffffffffffffffffffffffffffffffff1681565b60008061076b610710565b73ffffffffffffffffffffffffffffffffffffffff163373ffffffffffffffffffffffffffffffffffffffff161490506000606d54426107ab9190611c72565b905062015180811015806107bc5750815b6107fb576040517f08c379a00000000000000000000000000000000000000000000000000000000081526004016107f290611cf2565b60405180910390fd5b42606d819055506000606960009054906101000a900473ffffffffffffffffffffffffffffffffffffffff1673ffffffffffffffffffffffffffffffffffffffff166318160ddd6040518163ffffffff1660e01b8152600401602060405180830381865afa158015610871573d6000803e3d6000fd5b505050506040513d601f19601f820116820180604052508101906108959190611d27565b90506000606960009054906101000a900473ffffffffffffffffffffffffffffffffffffffff1673ffffffffffffffffffffffffffffffffffffffff166370a08231606a60009054906101000a900473ffffffffffffffffffffffffffffffffffffffff166040518263ffffffff1660e01b815260040161091691906117e8565b602060405180830381865afa158015610933573d6000803e3d6000fd5b505050506040513d601f19601f820116820180604052508101906109579190611d27565b9050600081836109679190611c72565b9050600063bbf81e0085600a8461097e9190611afa565b6109889190611afa565b6109929190611a4c565b90506000819050600081836109a79190611d54565b9050606b60009054906101000a900473ffffffffffffffffffffffffffffffffffffffff1673ffffffffffffffffffffffffffffffffffffffff1663a17a26856040518163ffffffff1660e01b8152600401602060405180830381865afa158015610a16573d6000803e3d6000fd5b505050506040513d601f19601f82011682018060405250810190610a3a9190611dc0565b15610b9057606a60009054906101000a900473ffffffffffffffffffffffffffffffffffffffff1673ffffffffffffffffffffffffffffffffffffffff1663c44316c684606b60009054906101000a900473ffffffffffffffffffffffffffffffffffffffff166040518363ffffffff1660e01b8152600401610abe929190611ded565b6020604051808303816000875af1158015610add573d6000803e3d6000fd5b505050506040513d601f19601f82011682018060405250810190610b019190611d27565b50606b60009054906101000a900473ffffffffffffffffffffffffffffffffffffffff1673ffffffffffffffffffffffffffffffffffffffff1663e5f330e8846040518263ffffffff1660e01b8152600401610b5d919061181c565b600060405180830381600087803b158015610b7757600080fd5b505af1158015610b8b573d6000803e3d6000fd5b505050505b606c60009054906101000a900473ffffffffffffffffffffffffffffffffffffffff1673ffffffffffffffffffffffffffffffffffffffff1663a17a26856040518163ffffffff1660e01b8152600401602060405180830381865afa158015610bfd573d6000803e3d6000fd5b505050506040513d601f19601f82011682018060405250810190610c219190611dc0565b15610d7757606a60009054906101000a900473ffffffffffffffffffffffffffffffffffffffff1673ffffffffffffffffffffffffffffffffffffffff1663c44316c683606c60009054906101000a900473ffffffffffffffffffffffffffffffffffffffff166040518363ffffffff1660e01b8152600401610ca5929190611ded565b6020604051808303816000875af1158015610cc4573d6000803e3d6000fd5b505050506040513d601f19601f82011682018060405250810190610ce89190611d27565b50606c60009054906101000a900473ffffffffffffffffffffffffffffffffffffffff1673ffffffffffffffffffffffffffffffffffffffff1663e5f330e8836040518263ffffffff1660e01b8152600401610d44919061181c565b600060405180830381600087803b158015610d5e57600080fd5b505af1158015610d72573d6000803e3d6000fd5b505050505b7fbcabeac7f89430597dc942c3264f28fd08010c3b2e19ecf95c6e690f9820b2a44282604051610da8929190611837565b60405180910390a1809850505050505050505090565b606960009054906101000a900473ffffffffffffffffffffffffffffffffffffffff1681565b610dec61157e565b600060655414610dfb57600080fd5b600160658190555086606660006101000a81548173ffffffffffffffffffffffffffffffffffffffff021916908373ffffffffffffffffffffffffffffffffffffffff16021790555085606760006101000a81548173ffffffffffffffffffffffffffffffffffffffff021916908373ffffffffffffffffffffffffffffffffffffffff16021790555084606860006101000a81548173ffffffffffffffffffffffffffffffffffffffff021916908373ffffffffffffffffffffffffffffffffffffffff16021790555083606960006101000a81548173ffffffffffffffffffffffffffffffffffffffff021916908373ffffffffffffffffffffffffffffffffffffffff16021790555082606a60006101000a81548173ffffffffffffffffffffffffffffffffffffffff021916908373ffffffffffffffffffffffffffffffffffffffff16021790555081606b60006101000a81548173ffffffffffffffffffffffffffffffffffffffff021916908373ffffffffffffffffffffffffffffffffffffffff16021790555080606c60006101000a81548173ffffffffffffffffffffffffffffffffffffffff021916908373ffffffffffffffffffffffffffffffffffffffff16021790555042606d8190555042606e8190555050505050505050565b606d5481565b606c60009054906101000a900473ffffffffffffffffffffffffffffffffffffffff1681565b61101561157e565b505050565b61102261157e565b600073ffffffffffffffffffffffffffffffffffffffff168173ffffffffffffffffffffffffffffffffffffffff1603611091576040517f08c379a000000000000000000000000000000000000000000000000000000000815260040161108890611e88565b60405180910390fd5b61109a816115fc565b50565b60655481565b6000683635c9adc5dea00000826110ba9190611a4c565b9050606760009054906101000a900473ffffffffffffffffffffffffffffffffffffffff1673ffffffffffffffffffffffffffffffffffffffff166309fecf7f83836040518363ffffffff1660e01b81526004016111189190611ecb565b6000604051808303818588803b15801561113157600080fd5b505af1158015611145573d6000803e3d6000fd5b50505050505050565b6000806000606760009054906101000a900473ffffffffffffffffffffffffffffffffffffffff1673ffffffffffffffffffffffffffffffffffffffff1663d68076c3306040518263ffffffff1660e01b81526004016111ae91906117e8565b602060405180830381865afa1580156111cb573d6000803e3d6000fd5b505050506040513d601f19601f820116820180604052508101906111ef9190611d27565b1115611292576000479050606760009054906101000a900473ffffffffffffffffffffffffffffffffffffffff1673ffffffffffffffffffffffffffffffffffffffff16638270512f6040518163ffffffff1660e01b8152600401600060405180830381600087803b15801561126457600080fd5b505af1158015611278573d6000803e3d6000fd5b505050506000479050818161128d9190611c72565b925050505b8091505090565b600080600367ffffffffffffffff8111156112b7576112b6611ee6565b5b6040519080825280602002602001820160405280156112e55781602001602082028036833780820191505090505b509050606660009054906101000a900473ffffffffffffffffffffffffffffffffffffffff1673ffffffffffffffffffffffffffffffffffffffff1663ad5c46486040518163ffffffff1660e01b8152600401602060405180830381865afa158015611355573d6000803e3d6000fd5b505050506040513d601f19601f820116820180604052508101906113799190611f2a565b8160008151811061138d5761138c611f57565b5b602002602001019073ffffffffffffffffffffffffffffffffffffffff16908173ffffffffffffffffffffffffffffffffffffffff1681525050606860009054906101000a900473ffffffffffffffffffffffffffffffffffffffff16816001815181106113fe576113fd611f57565b5b602002602001019073ffffffffffffffffffffffffffffffffffffffff16908173ffffffffffffffffffffffffffffffffffffffff1681525050606960009054906101000a900473ffffffffffffffffffffffffffffffffffffffff168160028151811061146f5761146e611f57565b5b602002602001019073ffffffffffffffffffffffffffffffffffffffff16908173ffffffffffffffffffffffffffffffffffffffff16815250506000606660009054906101000a900473ffffffffffffffffffffffffffffffffffffffff1673ffffffffffffffffffffffffffffffffffffffff16637ff36ab58660018588426040518663ffffffff1660e01b815260040161150e9493929190612075565b60006040518083038185885af115801561152c573d6000803e3d6000fd5b50505050506040513d6000823e3d601f19601f8201168201806040525081019061155691906121eb565b90508060028151811061156c5761156b611f57565b5b60200260200101519250505092915050565b61158661173e565b73ffffffffffffffffffffffffffffffffffffffff166115a4610710565b73ffffffffffffffffffffffffffffffffffffffff16146115fa576040517f08c379a00000000000000000000000000000000000000000000000000000000081526004016115f190612280565b60405180910390fd5b565b6000603360009054906101000a900473ffffffffffffffffffffffffffffffffffffffff16905081603360006101000a81548173ffffffffffffffffffffffffffffffffffffffff021916908373ffffffffffffffffffffffffffffffffffffffff1602179055508173ffffffffffffffffffffffffffffffffffffffff168173ffffffffffffffffffffffffffffffffffffffff167f8be0079c531659141344cd1fd0a4f28419497f9722a3daafe3b4186f6b6457e060405160405180910390a35050565b6000808273ffffffffffffffffffffffffffffffffffffffff163b119050919050565b600060019054906101000a900460ff16611734576040517f08c379a000000000000000000000000000000000000000000000000000000000815260040161172b90612312565b60405180910390fd5b61173c611746565b565b600033905090565b600060019054906101000a900460ff16611795576040517f08c379a000000000000000000000000000000000000000000000000000000000815260040161178c90612312565b60405180910390fd5b6117a56117a061173e565b6115fc565b565b600073ffffffffffffffffffffffffffffffffffffffff82169050919050565b60006117d2826117a7565b9050919050565b6117e2816117c7565b82525050565b60006020820190506117fd60008301846117d9565b92915050565b6000819050919050565b61181681611803565b82525050565b6000602082019050611831600083018461180d565b92915050565b600060408201905061184c600083018561180d565b611859602083018461180d565b9392505050565b6000604051905090565b600080fd5b600080fd5b61187d816117c7565b811461188857600080fd5b50565b60008135905061189a81611874565b92915050565b600080600080600080600060e0888a0312156118bf576118be61186a565b5b60006118cd8a828b0161188b565b97505060206118de8a828b0161188b565b96505060406118ef8a828b0161188b565b95505060606119008a828b0161188b565b94505060806119118a828b0161188b565b93505060a06119228a828b0161188b565b92505060c06119338a828b0161188b565b91505092959891949750929550565b61194b81611803565b811461195657600080fd5b50565b60008135905061196881611942565b92915050565b6000806000606084860312156119875761198661186a565b5b600061199586828701611959565b93505060206119a686828701611959565b92505060406119b786828701611959565b9150509250925092565b6000602082840312156119d7576119d661186a565b5b60006119e58482850161188b565b91505092915050565b7f4e487b7100000000000000000000000000000000000000000000000000000000600052601260045260246000fd5b7f4e487b7100000000000000000000000000000000000000000000000000000000600052601160045260246000fd5b6000611a5782611803565b9150611a6283611803565b925082611a7257611a716119ee565b5b828204905092915050565b600082825260208201905092915050565b7f7374616b65206d696e696d756d20697320313030300000000000000000000000600082015250565b6000611ac4601583611a7d565b9150611acf82611a8e565b602082019050919050565b60006020820190508181036000830152611af381611ab7565b9050919050565b6000611b0582611803565b9150611b1083611803565b9250828202611b1e81611803565b91508282048414831517611b3557611b34611a1d565b5b5092915050565b6000606082019050611b51600083018661180d565b611b5e602083018561180d565b611b6b604083018461180d565b949350505050565b7f496e697469616c697a61626c653a20636f6e747261637420697320616c72656160008201527f647920696e697469616c697a6564000000000000000000000000000000000000602082015250565b6000611bcf602e83611a7d565b9150611bda82611b73565b604082019050919050565b60006020820190508181036000830152611bfe81611bc2565b9050919050565b6000819050919050565b600060ff82169050919050565b6000819050919050565b6000611c41611c3c611c3784611c05565b611c1c565b611c0f565b9050919050565b611c5181611c26565b82525050565b6000602082019050611c6c6000830184611c48565b92915050565b6000611c7d82611803565b9150611c8883611803565b9250828203905081811115611ca057611c9f611a1d565b5b92915050565b7f696e76616c69642074696d650000000000000000000000000000000000000000600082015250565b6000611cdc600c83611a7d565b9150611ce782611ca6565b602082019050919050565b60006020820190508181036000830152611d0b81611ccf565b9050919050565b600081519050611d2181611942565b92915050565b600060208284031215611d3d57611d3c61186a565b5b6000611d4b84828501611d12565b91505092915050565b6000611d5f82611803565b9150611d6a83611803565b9250828201905080821115611d8257611d81611a1d565b5b92915050565b60008115159050919050565b611d9d81611d88565b8114611da857600080fd5b50565b600081519050611dba81611d94565b92915050565b600060208284031215611dd657611dd561186a565b5b6000611de484828501611dab565b91505092915050565b6000604082019050611e02600083018561180d565b611e0f60208301846117d9565b9392505050565b7f4f776e61626c653a206e6577206f776e657220697320746865207a65726f206160008201527f6464726573730000000000000000000000000000000000000000000000000000602082015250565b6000611e72602683611a7d565b9150611e7d82611e16565b604082019050919050565b60006020820190508181036000830152611ea181611e65565b9050919050565b600067ffffffffffffffff82169050919050565b611ec581611ea8565b82525050565b6000602082019050611ee06000830184611ebc565b92915050565b7f4e487b7100000000000000000000000000000000000000000000000000000000600052604160045260246000fd5b600081519050611f2481611874565b92915050565b600060208284031215611f4057611f3f61186a565b5b6000611f4e84828501611f15565b91505092915050565b7f4e487b7100000000000000000000000000000000000000000000000000000000600052603260045260246000fd5b6000611fa1611f9c611f9784611c05565b611c1c565b611803565b9050919050565b611fb181611f86565b82525050565b600081519050919050565b600082825260208201905092915050565b6000819050602082019050919050565b611fec816117c7565b82525050565b6000611ffe8383611fe3565b60208301905092915050565b6000602082019050919050565b600061202282611fb7565b61202c8185611fc2565b935061203783611fd3565b8060005b8381101561206857815161204f8882611ff2565b975061205a8361200a565b92505060018101905061203b565b5085935050505092915050565b600060808201905061208a6000830187611fa8565b818103602083015261209c8186612017565b90506120ab60408301856117d9565b6120b8606083018461180d565b95945050505050565b600080fd5b6000601f19601f8301169050919050565b6120e0826120c6565b810181811067ffffffffffffffff821117156120ff576120fe611ee6565b5b80604052505050565b6000612112611860565b905061211e82826120d7565b919050565b600067ffffffffffffffff82111561213e5761213d611ee6565b5b602082029050602081019050919050565b600080fd5b600061216761216284612123565b612108565b9050808382526020820190506020840283018581111561218a5761218961214f565b5b835b818110156121b3578061219f8882611d12565b84526020840193505060208101905061218c565b5050509392505050565b600082601f8301126121d2576121d16120c1565b5b81516121e2848260208601612154565b91505092915050565b6000602082840312156122015761220061186a565b5b600082015167ffffffffffffffff81111561221f5761221e61186f565b5b61222b848285016121bd565b91505092915050565b7f4f776e61626c653a2063616c6c6572206973206e6f7420746865206f776e6572600082015250565b600061226a602083611a7d565b915061227582612234565b602082019050919050565b600060208201905081810360008301526122998161225d565b9050919050565b7f496e697469616c697a61626c653a20636f6e7472616374206973206e6f74206960008201527f6e697469616c697a696e67000000000000000000000000000000000000000000602082015250565b60006122fc602b83611a7d565b9150612307826122a0565b604082019050919050565b6000602082019050818103600083015261232b816122ef565b905091905056fea2646970667358221220baa90c4c1885f248948361094e10b2fffb89142971ba618647c578eef09d317164736f6c63430008120033",
  "linkReferences": {},
  "deployedLinkReferences": {}
}