{
  "_format": "hh-sol-artifact-1",
  "contractName": "PoolV3",
  "sourceName": "contracts/PoolV3.sol",
  "abi": [
    {
      "inputs": [],
      "stateMutability": "nonpayable",
      "type": "constructor"
    },
    {
      "anonymous": false,
      "inputs": [
        {
          "indexed": false,
          "internalType": "uint8",
          "name": "version",
          "type": "uint8"
        }
      ],
      "name": "Initialized",
      "type": "event"
    },
    {
      "anonymous": false,
      "inputs": [
        {
          "indexed": true,
          "internalType": "address",
          "name": "previousOwner",
          "type": "address"
        },
        {
          "indexed": true,
          "internalType": "address",
          "name": "newOwner",
          "type": "address"
        }
      ],
      "name": "OwnershipTransferred",
      "type": "event"
    },
    {
      "anonymous": false,
      "inputs": [
        {
          "indexed": false,
          "internalType": "uint256",
          "name": "ts",
          "type": "uint256"
        },
        {
          "indexed": false,
          "internalType": "uint256",
          "name": "interest",
          "type": "uint256"
        },
        {
          "indexed": false,
          "internalType": "uint256",
          "name": "numToken",
          "type": "uint256"
        }
      ],
      "name": "PumpPrice",
      "type": "event"
    },
    {
      "anonymous": false,
      "inputs": [
        {
          "indexed": false,
          "internalType": "uint256",
          "name": "ts",
          "type": "uint256"
        },
        {
          "indexed": false,
          "internalType": "uint256",
          "name": "totalReward",
          "type": "uint256"
        }
      ],
      "name": "UpdateReward",
      "type": "event"
    },
    {
      "stateMutability": "payable",
      "type": "fallback"
    },
    {
      "inputs": [],
      "name": "ADDRESS_BANK",
      "outputs": [
        {
          "internalType": "address",
          "name": "",
          "type": "address"
        }
      ],
      "stateMutability": "view",
      "type": "function"
    },
    {
      "inputs": [],
      "name": "ADDRESS_COIN",
      "outputs": [
        {
          "internalType": "address",
          "name": "",
          "type": "address"
        }
      ],
      "stateMutability": "view",
      "type": "function"
    },
    {
      "inputs": [],
      "name": "ADDRESS_NFTREWARD",
      "outputs": [
        {
          "internalType": "address",
          "name": "",
          "type": "address"
        }
      ],
      "stateMutability": "view",
      "type": "function"
    },
    {
      "inputs": [],
      "name": "ADDRESS_POSPOOL",
      "outputs": [
        {
          "internalType": "address",
          "name": "",
          "type": "address"
        }
      ],
      "stateMutability": "view",
      "type": "function"
    },
    {
      "inputs": [],
      "name": "ADDRESS_ROUTER",
      "outputs": [
        {
          "internalType": "address",
          "name": "",
          "type": "address"
        }
      ],
      "stateMutability": "view",
      "type": "function"
    },
    {
      "inputs": [],
      "name": "ADDRESS_TOKEN",
      "outputs": [
        {
          "internalType": "address",
          "name": "",
          "type": "address"
        }
      ],
      "stateMutability": "view",
      "type": "function"
    },
    {
      "inputs": [],
      "name": "ADDRESS_TREWARD",
      "outputs": [
        {
          "internalType": "address",
          "name": "",
          "type": "address"
        }
      ],
      "stateMutability": "view",
      "type": "function"
    },
    {
      "inputs": [],
      "name": "VERSION",
      "outputs": [
        {
          "internalType": "uint256",
          "name": "",
          "type": "uint256"
        }
      ],
      "stateMutability": "view",
      "type": "function"
    },
    {
      "inputs": [
        {
          "internalType": "uint256",
          "name": "val1",
          "type": "uint256"
        },
        {
          "internalType": "uint256",
          "name": "val2",
          "type": "uint256"
        },
        {
          "internalType": "uint256",
          "name": "val3",
          "type": "uint256"
        }
      ],
      "name": "debug",
      "outputs": [],
      "stateMutability": "nonpayable",
      "type": "function"
    },
    {
      "inputs": [],
      "name": "initialize",
      "outputs": [],
      "stateMutability": "nonpayable",
      "type": "function"
    },
    {
      "inputs": [],
      "name": "lastUpdateTime",
      "outputs": [
        {
          "internalType": "uint256",
          "name": "",
          "type": "uint256"
        }
      ],
      "stateMutability": "view",
      "type": "function"
    },
    {
      "inputs": [],
      "name": "owner",
      "outputs": [
        {
          "internalType": "address",
          "name": "",
          "type": "address"
        }
      ],
      "stateMutability": "view",
      "type": "function"
    },
    {
      "inputs": [],
      "name": "pumpPrice",
      "outputs": [
        {
          "internalType": "uint256",
          "name": "",
          "type": "uint256"
        },
        {
          "internalType": "uint256",
          "name": "",
          "type": "uint256"
        }
      ],
      "stateMutability": "payable",
      "type": "function"
    },
    {
      "inputs": [],
      "name": "renounceOwnership",
      "outputs": [],
      "stateMutability": "nonpayable",
      "type": "function"
    },
    {
      "inputs": [
        {
          "internalType": "address",
          "name": "addrRouter",
          "type": "address"
        },
        {
          "internalType": "address",
          "name": "addrPP",
          "type": "address"
        },
        {
          "internalType": "address",
          "name": "addrCoin",
          "type": "address"
        },
        {
          "internalType": "address",
          "name": "addrToken",
          "type": "address"
        },
        {
          "internalType": "address",
          "name": "addrBank",
          "type": "address"
        },
        {
          "internalType": "address",
          "name": "addrNR",
          "type": "address"
        },
        {
          "internalType": "address",
          "name": "addrTR",
          "type": "address"
        }
      ],
      "name": "setup",
      "outputs": [],
      "stateMutability": "nonpayable",
      "type": "function"
    },
    {
      "inputs": [],
      "name": "stake",
      "outputs": [],
      "stateMutability": "payable",
      "type": "function"
    },
    {
      "inputs": [
        {
          "internalType": "address",
          "name": "newOwner",
          "type": "address"
        }
      ],
      "name": "transferOwnership",
      "outputs": [],
      "stateMutability": "nonpayable",
      "type": "function"
    },
    {
      "inputs": [],
      "name": "update",
      "outputs": [
        {
          "internalType": "uint256",
          "name": "",
          "type": "uint256"
        }
      ],
      "stateMutability": "nonpayable",
      "type": "function"
    },
    {
      "stateMutability": "payable",
      "type": "receive"
    }
  ],
  "bytecode": "0x60806040523480156200001157600080fd5b50620000226200002860201b60201c565b620001d3565b600060019054906101000a900460ff16156200007b576040517f08c379a0000000000000000000000000000000000000000000000000000000008152600401620000729062000176565b60405180910390fd5b60ff801660008054906101000a900460ff1660ff161015620000ed5760ff6000806101000a81548160ff021916908360ff1602179055507f7f26b83ff96e1f2b6a682f133852f6798a09c465da95921460cefb384740249860ff604051620000e49190620001b6565b60405180910390a15b565b600082825260208201905092915050565b7f496e697469616c697a61626c653a20636f6e747261637420697320696e69746960008201527f616c697a696e6700000000000000000000000000000000000000000000000000602082015250565b60006200015e602783620000ef565b91506200016b8262000100565b604082019050919050565b6000602082019050818103600083015262000191816200014f565b9050919050565b600060ff82169050919050565b620001b08162000198565b82525050565b6000602082019050620001cd6000830184620001a5565b92915050565b61231c80620001e36000396000f3fe60806040526004361061010d5760003560e01c8063a1f6467111610095578063c8f33c9111610064578063c8f33c91146102ee578063df6240ac14610319578063f1230fef14610344578063f2fde38b1461036d578063ffa1ad741461039657610114565b8063a1f6467114610244578063a2e620451461026f578063b9cfe2a81461029a578063c673e248146102c557610114565b80636c8545ac116100dc5780636c8545ac146101a1578063715018a6146101c05780638129fc1c146101d75780638b117e43146101ee5780638da5cb5b1461021957610114565b8063165310c51461011657806326fc3f5d146101415780633a4b66f11461016c5780636bfd4bdf1461017657610114565b3661011457005b005b34801561012257600080fd5b5061012b6103c1565b604051610138919061179c565b60405180910390f35b34801561014d57600080fd5b506101566103e7565b604051610163919061179c565b60405180910390f35b61017461040d565b005b34801561018257600080fd5b5061018b610492565b604051610198919061179c565b60405180910390f35b6101a96104b8565b6040516101b79291906117d0565b60405180910390f35b3480156101cc57600080fd5b506101d5610553565b005b3480156101e357600080fd5b506101ec610567565b005b3480156101fa57600080fd5b506102036106a5565b604051610210919061179c565b60405180910390f35b34801561022557600080fd5b5061022e6106cb565b60405161023b919061179c565b60405180910390f35b34801561025057600080fd5b506102596106f5565b604051610266919061179c565b60405180910390f35b34801561027b57600080fd5b5061028461071b565b60405161029191906117f9565b60405180910390f35b3480156102a657600080fd5b506102af610d79565b6040516102bc919061179c565b60405180910390f35b3480156102d157600080fd5b506102ec60048036038101906102e79190611854565b610d9f565b005b3480156102fa57600080fd5b50610303610f95565b60405161031091906117f9565b60405180910390f35b34801561032557600080fd5b5061032e610f9b565b60405161033b919061179c565b60405180910390f35b34801561035057600080fd5b5061036b60048036038101906103669190611922565b610fc1565b005b34801561037957600080fd5b50610394600480360381019061038f9190611975565b610fce565b005b3480156103a257600080fd5b506103ab611051565b6040516103b891906117f9565b60405180910390f35b606860009054906101000a900473ffffffffffffffffffffffffffffffffffffffff1681565b606660009054906101000a900473ffffffffffffffffffffffffffffffffffffffff1681565b60004790506000683635c9adc5dea00000826104299190611a00565b90506000811161046e576040517f08c379a000000000000000000000000000000000000000000000000000000000815260040161046590611a8e565b60405180910390fd5b683635c9adc5dea00000816104839190611aae565b915061048e82611057565b5050565b606760009054906101000a900473ffffffffffffffffffffffffffffffffffffffff1681565b6000806000349050600081036104d3576104d0611102565b90505b6000808211156105475761050982606a60009054906101000a900473ffffffffffffffffffffffffffffffffffffffff1661124d565b90507ff9f87a27e273a6cc844162b46d2644265249a4973bfd2da22b3cf3f732a5a17b42838360405161053e93929190611af0565b60405180910390a15b81819350935050509091565b61055b611532565b61056560006115b0565b565b60008060019054906101000a900460ff161590508080156105985750600160008054906101000a900460ff1660ff16105b806105c557506105a730611676565b1580156105c45750600160008054906101000a900460ff1660ff16145b5b610604576040517f08c379a00000000000000000000000000000000000000000000000000000000081526004016105fb90611b99565b60405180910390fd5b60016000806101000a81548160ff021916908360ff1602179055508015610641576001600060016101000a81548160ff0219169083151502179055505b610649611699565b80156106a25760008060016101000a81548160ff0219169083151502179055507f7f26b83ff96e1f2b6a682f133852f6798a09c465da95921460cefb384740249860016040516106999190611c0b565b60405180910390a15b50565b606a60009054906101000a900473ffffffffffffffffffffffffffffffffffffffff1681565b6000603360009054906101000a900473ffffffffffffffffffffffffffffffffffffffff16905090565b606b60009054906101000a900473ffffffffffffffffffffffffffffffffffffffff1681565b6000806107266106cb565b73ffffffffffffffffffffffffffffffffffffffff163373ffffffffffffffffffffffffffffffffffffffff161490506000606d54426107669190611c26565b905062015180811015806107775750815b6107b6576040517f08c379a00000000000000000000000000000000000000000000000000000000081526004016107ad90611ca6565b60405180910390fd5b42606d819055506000606960009054906101000a900473ffffffffffffffffffffffffffffffffffffffff1673ffffffffffffffffffffffffffffffffffffffff166318160ddd6040518163ffffffff1660e01b8152600401602060405180830381865afa15801561082c573d6000803e3d6000fd5b505050506040513d601f19601f820116820180604052508101906108509190611cdb565b90506000606960009054906101000a900473ffffffffffffffffffffffffffffffffffffffff1673ffffffffffffffffffffffffffffffffffffffff166370a08231606a60009054906101000a900473ffffffffffffffffffffffffffffffffffffffff166040518263ffffffff1660e01b81526004016108d1919061179c565b602060405180830381865afa1580156108ee573d6000803e3d6000fd5b505050506040513d601f19601f820116820180604052508101906109129190611cdb565b9050600081836109229190611c26565b9050600063bbf81e0085600a846109399190611aae565b6109439190611aae565b61094d9190611a00565b90506000819050600081836109629190611d08565b9050606b60009054906101000a900473ffffffffffffffffffffffffffffffffffffffff1673ffffffffffffffffffffffffffffffffffffffff1663a17a26856040518163ffffffff1660e01b8152600401602060405180830381865afa1580156109d1573d6000803e3d6000fd5b505050506040513d601f19601f820116820180604052508101906109f59190611d74565b15610b4b57606a60009054906101000a900473ffffffffffffffffffffffffffffffffffffffff1673ffffffffffffffffffffffffffffffffffffffff1663c44316c684606b60009054906101000a900473ffffffffffffffffffffffffffffffffffffffff166040518363ffffffff1660e01b8152600401610a79929190611da1565b6020604051808303816000875af1158015610a98573d6000803e3d6000fd5b505050506040513d601f19601f82011682018060405250810190610abc9190611cdb565b50606b60009054906101000a900473ffffffffffffffffffffffffffffffffffffffff1673ffffffffffffffffffffffffffffffffffffffff1663e5f330e8846040518263ffffffff1660e01b8152600401610b1891906117f9565b600060405180830381600087803b158015610b3257600080fd5b505af1158015610b46573d6000803e3d6000fd5b505050505b606c60009054906101000a900473ffffffffffffffffffffffffffffffffffffffff1673ffffffffffffffffffffffffffffffffffffffff1663a17a26856040518163ffffffff1660e01b8152600401602060405180830381865afa158015610bb8573d6000803e3d6000fd5b505050506040513d601f19601f82011682018060405250810190610bdc9190611d74565b15610d3257606a60009054906101000a900473ffffffffffffffffffffffffffffffffffffffff1673ffffffffffffffffffffffffffffffffffffffff1663c44316c683606c60009054906101000a900473ffffffffffffffffffffffffffffffffffffffff166040518363ffffffff1660e01b8152600401610c60929190611da1565b6020604051808303816000875af1158015610c7f573d6000803e3d6000fd5b505050506040513d601f19601f82011682018060405250810190610ca39190611cdb565b50606c60009054906101000a900473ffffffffffffffffffffffffffffffffffffffff1673ffffffffffffffffffffffffffffffffffffffff1663e5f330e8836040518263ffffffff1660e01b8152600401610cff91906117f9565b600060405180830381600087803b158015610d1957600080fd5b505af1158015610d2d573d6000803e3d6000fd5b505050505b7fbcabeac7f89430597dc942c3264f28fd08010c3b2e19ecf95c6e690f9820b2a44282604051610d639291906117d0565b60405180910390a1809850505050505050505090565b606960009054906101000a900473ffffffffffffffffffffffffffffffffffffffff1681565b610da7611532565b600060655414610db657600080fd5b600160658190555086606660006101000a81548173ffffffffffffffffffffffffffffffffffffffff021916908373ffffffffffffffffffffffffffffffffffffffff16021790555085606760006101000a81548173ffffffffffffffffffffffffffffffffffffffff021916908373ffffffffffffffffffffffffffffffffffffffff16021790555084606860006101000a81548173ffffffffffffffffffffffffffffffffffffffff021916908373ffffffffffffffffffffffffffffffffffffffff16021790555083606960006101000a81548173ffffffffffffffffffffffffffffffffffffffff021916908373ffffffffffffffffffffffffffffffffffffffff16021790555082606a60006101000a81548173ffffffffffffffffffffffffffffffffffffffff021916908373ffffffffffffffffffffffffffffffffffffffff16021790555081606b60006101000a81548173ffffffffffffffffffffffffffffffffffffffff021916908373ffffffffffffffffffffffffffffffffffffffff16021790555080606c60006101000a81548173ffffffffffffffffffffffffffffffffffffffff021916908373ffffffffffffffffffffffffffffffffffffffff16021790555042606d8190555050505050505050565b606d5481565b606c60009054906101000a900473ffffffffffffffffffffffffffffffffffffffff1681565b610fc9611532565b505050565b610fd6611532565b600073ffffffffffffffffffffffffffffffffffffffff168173ffffffffffffffffffffffffffffffffffffffff1603611045576040517f08c379a000000000000000000000000000000000000000000000000000000000815260040161103c90611e3c565b60405180910390fd5b61104e816115b0565b50565b60655481565b6000683635c9adc5dea000008261106e9190611a00565b9050606760009054906101000a900473ffffffffffffffffffffffffffffffffffffffff1673ffffffffffffffffffffffffffffffffffffffff166309fecf7f83836040518363ffffffff1660e01b81526004016110cc9190611e7f565b6000604051808303818588803b1580156110e557600080fd5b505af11580156110f9573d6000803e3d6000fd5b50505050505050565b6000806000606760009054906101000a900473ffffffffffffffffffffffffffffffffffffffff1673ffffffffffffffffffffffffffffffffffffffff1663d68076c3306040518263ffffffff1660e01b8152600401611162919061179c565b602060405180830381865afa15801561117f573d6000803e3d6000fd5b505050506040513d601f19601f820116820180604052508101906111a39190611cdb565b1115611246576000479050606760009054906101000a900473ffffffffffffffffffffffffffffffffffffffff1673ffffffffffffffffffffffffffffffffffffffff16638270512f6040518163ffffffff1660e01b8152600401600060405180830381600087803b15801561121857600080fd5b505af115801561122c573d6000803e3d6000fd5b50505050600047905081816112419190611c26565b925050505b8091505090565b600080600367ffffffffffffffff81111561126b5761126a611e9a565b5b6040519080825280602002602001820160405280156112995781602001602082028036833780820191505090505b509050606660009054906101000a900473ffffffffffffffffffffffffffffffffffffffff1673ffffffffffffffffffffffffffffffffffffffff1663ad5c46486040518163ffffffff1660e01b8152600401602060405180830381865afa158015611309573d6000803e3d6000fd5b505050506040513d601f19601f8201168201806040525081019061132d9190611ede565b8160008151811061134157611340611f0b565b5b602002602001019073ffffffffffffffffffffffffffffffffffffffff16908173ffffffffffffffffffffffffffffffffffffffff1681525050606860009054906101000a900473ffffffffffffffffffffffffffffffffffffffff16816001815181106113b2576113b1611f0b565b5b602002602001019073ffffffffffffffffffffffffffffffffffffffff16908173ffffffffffffffffffffffffffffffffffffffff1681525050606960009054906101000a900473ffffffffffffffffffffffffffffffffffffffff168160028151811061142357611422611f0b565b5b602002602001019073ffffffffffffffffffffffffffffffffffffffff16908173ffffffffffffffffffffffffffffffffffffffff16815250506000606660009054906101000a900473ffffffffffffffffffffffffffffffffffffffff1673ffffffffffffffffffffffffffffffffffffffff16637ff36ab58660018588426040518663ffffffff1660e01b81526004016114c29493929190612029565b60006040518083038185885af11580156114e0573d6000803e3d6000fd5b50505050506040513d6000823e3d601f19601f8201168201806040525081019061150a919061219f565b9050806002815181106115205761151f611f0b565b5b60200260200101519250505092915050565b61153a6116f2565b73ffffffffffffffffffffffffffffffffffffffff166115586106cb565b73ffffffffffffffffffffffffffffffffffffffff16146115ae576040517f08c379a00000000000000000000000000000000000000000000000000000000081526004016115a590612234565b60405180910390fd5b565b6000603360009054906101000a900473ffffffffffffffffffffffffffffffffffffffff16905081603360006101000a81548173ffffffffffffffffffffffffffffffffffffffff021916908373ffffffffffffffffffffffffffffffffffffffff1602179055508173ffffffffffffffffffffffffffffffffffffffff168173ffffffffffffffffffffffffffffffffffffffff167f8be0079c531659141344cd1fd0a4f28419497f9722a3daafe3b4186f6b6457e060405160405180910390a35050565b6000808273ffffffffffffffffffffffffffffffffffffffff163b119050919050565b600060019054906101000a900460ff166116e8576040517f08c379a00000000000000000000000000000000000000000000000000000000081526004016116df906122c6565b60405180910390fd5b6116f06116fa565b565b600033905090565b600060019054906101000a900460ff16611749576040517f08c379a0000000000000000000000000000000000000000000000000000000008152600401611740906122c6565b60405180910390fd5b6117596117546116f2565b6115b0565b565b600073ffffffffffffffffffffffffffffffffffffffff82169050919050565b60006117868261175b565b9050919050565b6117968161177b565b82525050565b60006020820190506117b1600083018461178d565b92915050565b6000819050919050565b6117ca816117b7565b82525050565b60006040820190506117e560008301856117c1565b6117f260208301846117c1565b9392505050565b600060208201905061180e60008301846117c1565b92915050565b6000604051905090565b600080fd5b600080fd5b6118318161177b565b811461183c57600080fd5b50565b60008135905061184e81611828565b92915050565b600080600080600080600060e0888a0312156118735761187261181e565b5b60006118818a828b0161183f565b97505060206118928a828b0161183f565b96505060406118a38a828b0161183f565b95505060606118b48a828b0161183f565b94505060806118c58a828b0161183f565b93505060a06118d68a828b0161183f565b92505060c06118e78a828b0161183f565b91505092959891949750929550565b6118ff816117b7565b811461190a57600080fd5b50565b60008135905061191c816118f6565b92915050565b60008060006060848603121561193b5761193a61181e565b5b60006119498682870161190d565b935050602061195a8682870161190d565b925050604061196b8682870161190d565b9150509250925092565b60006020828403121561198b5761198a61181e565b5b60006119998482850161183f565b91505092915050565b7f4e487b7100000000000000000000000000000000000000000000000000000000600052601260045260246000fd5b7f4e487b7100000000000000000000000000000000000000000000000000000000600052601160045260246000fd5b6000611a0b826117b7565b9150611a16836117b7565b925082611a2657611a256119a2565b5b828204905092915050565b600082825260208201905092915050565b7f7374616b65206d696e696d756d20697320313030300000000000000000000000600082015250565b6000611a78601583611a31565b9150611a8382611a42565b602082019050919050565b60006020820190508181036000830152611aa781611a6b565b9050919050565b6000611ab9826117b7565b9150611ac4836117b7565b9250828202611ad2816117b7565b91508282048414831517611ae957611ae86119d1565b5b5092915050565b6000606082019050611b0560008301866117c1565b611b1260208301856117c1565b611b1f60408301846117c1565b949350505050565b7f496e697469616c697a61626c653a20636f6e747261637420697320616c72656160008201527f647920696e697469616c697a6564000000000000000000000000000000000000602082015250565b6000611b83602e83611a31565b9150611b8e82611b27565b604082019050919050565b60006020820190508181036000830152611bb281611b76565b9050919050565b6000819050919050565b600060ff82169050919050565b6000819050919050565b6000611bf5611bf0611beb84611bb9565b611bd0565b611bc3565b9050919050565b611c0581611bda565b82525050565b6000602082019050611c206000830184611bfc565b92915050565b6000611c31826117b7565b9150611c3c836117b7565b9250828203905081811115611c5457611c536119d1565b5b92915050565b7f696e76616c69642074696d650000000000000000000000000000000000000000600082015250565b6000611c90600c83611a31565b9150611c9b82611c5a565b602082019050919050565b60006020820190508181036000830152611cbf81611c83565b9050919050565b600081519050611cd5816118f6565b92915050565b600060208284031215611cf157611cf061181e565b5b6000611cff84828501611cc6565b91505092915050565b6000611d13826117b7565b9150611d1e836117b7565b9250828201905080821115611d3657611d356119d1565b5b92915050565b60008115159050919050565b611d5181611d3c565b8114611d5c57600080fd5b50565b600081519050611d6e81611d48565b92915050565b600060208284031215611d8a57611d8961181e565b5b6000611d9884828501611d5f565b91505092915050565b6000604082019050611db660008301856117c1565b611dc3602083018461178d565b9392505050565b7f4f776e61626c653a206e6577206f776e657220697320746865207a65726f206160008201527f6464726573730000000000000000000000000000000000000000000000000000602082015250565b6000611e26602683611a31565b9150611e3182611dca565b604082019050919050565b60006020820190508181036000830152611e5581611e19565b9050919050565b600067ffffffffffffffff82169050919050565b611e7981611e5c565b82525050565b6000602082019050611e946000830184611e70565b92915050565b7f4e487b7100000000000000000000000000000000000000000000000000000000600052604160045260246000fd5b600081519050611ed881611828565b92915050565b600060208284031215611ef457611ef361181e565b5b6000611f0284828501611ec9565b91505092915050565b7f4e487b7100000000000000000000000000000000000000000000000000000000600052603260045260246000fd5b6000611f55611f50611f4b84611bb9565b611bd0565b6117b7565b9050919050565b611f6581611f3a565b82525050565b600081519050919050565b600082825260208201905092915050565b6000819050602082019050919050565b611fa08161177b565b82525050565b6000611fb28383611f97565b60208301905092915050565b6000602082019050919050565b6000611fd682611f6b565b611fe08185611f76565b9350611feb83611f87565b8060005b8381101561201c5781516120038882611fa6565b975061200e83611fbe565b925050600181019050611fef565b5085935050505092915050565b600060808201905061203e6000830187611f5c565b81810360208301526120508186611fcb565b905061205f604083018561178d565b61206c60608301846117c1565b95945050505050565b600080fd5b6000601f19601f8301169050919050565b6120948261207a565b810181811067ffffffffffffffff821117156120b3576120b2611e9a565b5b80604052505050565b60006120c6611814565b90506120d2828261208b565b919050565b600067ffffffffffffffff8211156120f2576120f1611e9a565b5b602082029050602081019050919050565b600080fd5b600061211b612116846120d7565b6120bc565b9050808382526020820190506020840283018581111561213e5761213d612103565b5b835b8181101561216757806121538882611cc6565b845260208401935050602081019050612140565b5050509392505050565b600082601f83011261218657612185612075565b5b8151612196848260208601612108565b91505092915050565b6000602082840312156121b5576121b461181e565b5b600082015167ffffffffffffffff8111156121d3576121d2611823565b5b6121df84828501612171565b91505092915050565b7f4f776e61626c653a2063616c6c6572206973206e6f7420746865206f776e6572600082015250565b600061221e602083611a31565b9150612229826121e8565b602082019050919050565b6000602082019050818103600083015261224d81612211565b9050919050565b7f496e697469616c697a61626c653a20636f6e7472616374206973206e6f74206960008201527f6e697469616c697a696e67000000000000000000000000000000000000000000602082015250565b60006122b0602b83611a31565b91506122bb82612254565b604082019050919050565b600060208201905081810360008301526122df816122a3565b905091905056fea2646970667358221220d8a1d2bb421ed8a61a8bb0e671274cc66d090ca0b7f1b7549bfe02a3a731a2fa64736f6c63430008120033",
  "linkReferences": {},
  "deployedLinkReferences": {}
}