{
  "_format": "hh-sol-artifact-1",
  "contractName": "NFTV3",
  "sourceName": "contracts/NFTV3.sol",
  "abi": [
    {
      "inputs": [],
      "stateMutability": "nonpayable",
      "type": "constructor"
    },
    {
      "anonymous": false,
      "inputs": [
        {
          "indexed": true,
          "internalType": "address",
          "name": "owner",
          "type": "address"
        },
        {
          "indexed": true,
          "internalType": "address",
          "name": "approved",
          "type": "address"
        },
        {
          "indexed": true,
          "internalType": "uint256",
          "name": "tokenId",
          "type": "uint256"
        }
      ],
      "name": "Approval",
      "type": "event"
    },
    {
      "anonymous": false,
      "inputs": [
        {
          "indexed": true,
          "internalType": "address",
          "name": "owner",
          "type": "address"
        },
        {
          "indexed": true,
          "internalType": "address",
          "name": "operator",
          "type": "address"
        },
        {
          "indexed": false,
          "internalType": "bool",
          "name": "approved",
          "type": "bool"
        }
      ],
      "name": "ApprovalForAll",
      "type": "event"
    },
    {
      "anonymous": false,
      "inputs": [
        {
          "indexed": false,
          "internalType": "uint8",
          "name": "version",
          "type": "uint8"
        }
      ],
      "name": "Initialized",
      "type": "event"
    },
    {
      "anonymous": false,
      "inputs": [
        {
          "indexed": true,
          "internalType": "address",
          "name": "previousOwner",
          "type": "address"
        },
        {
          "indexed": true,
          "internalType": "address",
          "name": "newOwner",
          "type": "address"
        }
      ],
      "name": "OwnershipTransferred",
      "type": "event"
    },
    {
      "anonymous": false,
      "inputs": [
        {
          "indexed": true,
          "internalType": "address",
          "name": "from",
          "type": "address"
        },
        {
          "indexed": true,
          "internalType": "address",
          "name": "to",
          "type": "address"
        },
        {
          "indexed": true,
          "internalType": "uint256",
          "name": "tokenId",
          "type": "uint256"
        }
      ],
      "name": "Transfer",
      "type": "event"
    },
    {
      "stateMutability": "payable",
      "type": "fallback"
    },
    {
      "inputs": [],
      "name": "ADDRESS_NFTREWARD",
      "outputs": [
        {
          "internalType": "address",
          "name": "",
          "type": "address"
        }
      ],
      "stateMutability": "view",
      "type": "function"
    },
    {
      "inputs": [],
      "name": "ADDRESS_POOL",
      "outputs": [
        {
          "internalType": "address",
          "name": "",
          "type": "address"
        }
      ],
      "stateMutability": "view",
      "type": "function"
    },
    {
      "inputs": [],
      "name": "VERSION",
      "outputs": [
        {
          "internalType": "uint256",
          "name": "",
          "type": "uint256"
        }
      ],
      "stateMutability": "view",
      "type": "function"
    },
    {
      "inputs": [
        {
          "internalType": "address",
          "name": "to",
          "type": "address"
        },
        {
          "internalType": "uint256",
          "name": "tokenId",
          "type": "uint256"
        }
      ],
      "name": "approve",
      "outputs": [],
      "stateMutability": "nonpayable",
      "type": "function"
    },
    {
      "inputs": [
        {
          "internalType": "address",
          "name": "owner",
          "type": "address"
        }
      ],
      "name": "balanceOf",
      "outputs": [
        {
          "internalType": "uint256",
          "name": "",
          "type": "uint256"
        }
      ],
      "stateMutability": "view",
      "type": "function"
    },
    {
      "inputs": [],
      "name": "baseURL0",
      "outputs": [
        {
          "internalType": "string",
          "name": "",
          "type": "string"
        }
      ],
      "stateMutability": "view",
      "type": "function"
    },
    {
      "inputs": [],
      "name": "baseURL1",
      "outputs": [
        {
          "internalType": "string",
          "name": "",
          "type": "string"
        }
      ],
      "stateMutability": "view",
      "type": "function"
    },
    {
      "inputs": [
        {
          "internalType": "uint256",
          "name": "tokenId",
          "type": "uint256"
        }
      ],
      "name": "getApproved",
      "outputs": [
        {
          "internalType": "address",
          "name": "",
          "type": "address"
        }
      ],
      "stateMutability": "view",
      "type": "function"
    },
    {
      "inputs": [],
      "name": "getData",
      "outputs": [
        {
          "internalType": "uint256",
          "name": "",
          "type": "uint256"
        },
        {
          "internalType": "uint256",
          "name": "",
          "type": "uint256"
        },
        {
          "internalType": "uint256",
          "name": "",
          "type": "uint256"
        },
        {
          "internalType": "uint256",
          "name": "",
          "type": "uint256"
        },
        {
          "internalType": "uint256",
          "name": "",
          "type": "uint256"
        },
        {
          "internalType": "uint256",
          "name": "",
          "type": "uint256"
        }
      ],
      "stateMutability": "view",
      "type": "function"
    },
    {
      "inputs": [
        {
          "internalType": "uint256",
          "name": "index",
          "type": "uint256"
        }
      ],
      "name": "getNFTData",
      "outputs": [
        {
          "internalType": "uint256",
          "name": "",
          "type": "uint256"
        },
        {
          "internalType": "uint256",
          "name": "",
          "type": "uint256"
        },
        {
          "internalType": "uint256",
          "name": "",
          "type": "uint256"
        },
        {
          "internalType": "uint256",
          "name": "",
          "type": "uint256"
        }
      ],
      "stateMutability": "view",
      "type": "function"
    },
    {
      "inputs": [
        {
          "internalType": "string",
          "name": "name",
          "type": "string"
        },
        {
          "internalType": "string",
          "name": "symbol",
          "type": "string"
        }
      ],
      "name": "initialize",
      "outputs": [],
      "stateMutability": "nonpayable",
      "type": "function"
    },
    {
      "inputs": [
        {
          "internalType": "address",
          "name": "owner",
          "type": "address"
        },
        {
          "internalType": "address",
          "name": "operator",
          "type": "address"
        }
      ],
      "name": "isApprovedForAll",
      "outputs": [
        {
          "internalType": "bool",
          "name": "",
          "type": "bool"
        }
      ],
      "stateMutability": "view",
      "type": "function"
    },
    {
      "inputs": [
        {
          "internalType": "address",
          "name": "receiver",
          "type": "address"
        }
      ],
      "name": "mint",
      "outputs": [],
      "stateMutability": "payable",
      "type": "function"
    },
    {
      "inputs": [],
      "name": "name",
      "outputs": [
        {
          "internalType": "string",
          "name": "",
          "type": "string"
        }
      ],
      "stateMutability": "view",
      "type": "function"
    },
    {
      "inputs": [],
      "name": "owner",
      "outputs": [
        {
          "internalType": "address",
          "name": "",
          "type": "address"
        }
      ],
      "stateMutability": "view",
      "type": "function"
    },
    {
      "inputs": [
        {
          "internalType": "uint256",
          "name": "tokenId",
          "type": "uint256"
        }
      ],
      "name": "ownerOf",
      "outputs": [
        {
          "internalType": "address",
          "name": "",
          "type": "address"
        }
      ],
      "stateMutability": "view",
      "type": "function"
    },
    {
      "inputs": [
        {
          "internalType": "uint256",
          "name": "nftId",
          "type": "uint256"
        }
      ],
      "name": "powerUp",
      "outputs": [],
      "stateMutability": "payable",
      "type": "function"
    },
    {
      "inputs": [],
      "name": "renounceOwnership",
      "outputs": [],
      "stateMutability": "nonpayable",
      "type": "function"
    },
    {
      "inputs": [
        {
          "internalType": "address",
          "name": "from",
          "type": "address"
        },
        {
          "internalType": "address",
          "name": "to",
          "type": "address"
        },
        {
          "internalType": "uint256",
          "name": "tokenId",
          "type": "uint256"
        }
      ],
      "name": "safeTransferFrom",
      "outputs": [],
      "stateMutability": "nonpayable",
      "type": "function"
    },
    {
      "inputs": [
        {
          "internalType": "address",
          "name": "from",
          "type": "address"
        },
        {
          "internalType": "address",
          "name": "to",
          "type": "address"
        },
        {
          "internalType": "uint256",
          "name": "tokenId",
          "type": "uint256"
        },
        {
          "internalType": "bytes",
          "name": "data",
          "type": "bytes"
        }
      ],
      "name": "safeTransferFrom",
      "outputs": [],
      "stateMutability": "nonpayable",
      "type": "function"
    },
    {
      "inputs": [
        {
          "internalType": "address",
          "name": "operator",
          "type": "address"
        },
        {
          "internalType": "bool",
          "name": "approved",
          "type": "bool"
        }
      ],
      "name": "setApprovalForAll",
      "outputs": [],
      "stateMutability": "nonpayable",
      "type": "function"
    },
    {
      "inputs": [
        {
          "internalType": "string",
          "name": "url0",
          "type": "string"
        },
        {
          "internalType": "string",
          "name": "url1",
          "type": "string"
        }
      ],
      "name": "setURL",
      "outputs": [],
      "stateMutability": "nonpayable",
      "type": "function"
    },
    {
      "inputs": [
        {
          "internalType": "address",
          "name": "addrPool",
          "type": "address"
        },
        {
          "internalType": "address",
          "name": "addrNR",
          "type": "address"
        }
      ],
      "name": "setup",
      "outputs": [],
      "stateMutability": "nonpayable",
      "type": "function"
    },
    {
      "inputs": [
        {
          "internalType": "bytes4",
          "name": "interfaceId",
          "type": "bytes4"
        }
      ],
      "name": "supportsInterface",
      "outputs": [
        {
          "internalType": "bool",
          "name": "",
          "type": "bool"
        }
      ],
      "stateMutability": "view",
      "type": "function"
    },
    {
      "inputs": [],
      "name": "symbol",
      "outputs": [
        {
          "internalType": "string",
          "name": "",
          "type": "string"
        }
      ],
      "stateMutability": "view",
      "type": "function"
    },
    {
      "inputs": [
        {
          "internalType": "uint256",
          "name": "index",
          "type": "uint256"
        }
      ],
      "name": "tokenByIndex",
      "outputs": [
        {
          "internalType": "uint256",
          "name": "",
          "type": "uint256"
        }
      ],
      "stateMutability": "view",
      "type": "function"
    },
    {
      "inputs": [
        {
          "internalType": "address",
          "name": "owner",
          "type": "address"
        },
        {
          "internalType": "uint256",
          "name": "index",
          "type": "uint256"
        }
      ],
      "name": "tokenOfOwnerByIndex",
      "outputs": [
        {
          "internalType": "uint256",
          "name": "",
          "type": "uint256"
        }
      ],
      "stateMutability": "view",
      "type": "function"
    },
    {
      "inputs": [
        {
          "internalType": "uint256",
          "name": "nftId",
          "type": "uint256"
        }
      ],
      "name": "tokenURI",
      "outputs": [
        {
          "internalType": "string",
          "name": "",
          "type": "string"
        }
      ],
      "stateMutability": "view",
      "type": "function"
    },
    {
      "inputs": [],
      "name": "totalSupply",
      "outputs": [
        {
          "internalType": "uint256",
          "name": "",
          "type": "uint256"
        }
      ],
      "stateMutability": "view",
      "type": "function"
    },
    {
      "inputs": [
        {
          "internalType": "address",
          "name": "from",
          "type": "address"
        },
        {
          "internalType": "address",
          "name": "to",
          "type": "address"
        },
        {
          "internalType": "uint256",
          "name": "tokenId",
          "type": "uint256"
        }
      ],
      "name": "transferFrom",
      "outputs": [],
      "stateMutability": "nonpayable",
      "type": "function"
    },
    {
      "inputs": [
        {
          "internalType": "address",
          "name": "newOwner",
          "type": "address"
        }
      ],
      "name": "transferOwnership",
      "outputs": [],
      "stateMutability": "nonpayable",
      "type": "function"
    },
    {
      "stateMutability": "payable",
      "type": "receive"
    }
  ],
  "bytecode": "0x60806040523480156200001157600080fd5b50620000226200002860201b60201c565b620001d3565b600060019054906101000a900460ff16156200007b576040517f08c379a0000000000000000000000000000000000000000000000000000000008152600401620000729062000176565b60405180910390fd5b60ff801660008054906101000a900460ff1660ff161015620000ed5760ff6000806101000a81548160ff021916908360ff1602179055507f7f26b83ff96e1f2b6a682f133852f6798a09c465da95921460cefb384740249860ff604051620000e49190620001b6565b60405180910390a15b565b600082825260208201905092915050565b7f496e697469616c697a61626c653a20636f6e747261637420697320696e69746960008201527f616c697a696e6700000000000000000000000000000000000000000000000000602082015250565b60006200015e602783620000ef565b91506200016b8262000100565b604082019050919050565b6000602082019050818103600083015262000191816200014f565b9050919050565b600060ff82169050919050565b620001b08162000198565b82525050565b6000602082019050620001cd6000830184620001a5565b92915050565b6149e380620001e36000396000f3fe6080604052600436106101dc5760003560e01c806367d2e88e11610102578063a22cb46511610095578063e985e9c511610064578063e985e9c5146106c4578063f2fde38b14610701578063fb11fe161461072a578063ffa1ad7414610755576101e3565b8063a22cb4651461060a578063b88d4fde14610633578063c87b56dd1461065c578063cad7976c14610699576101e3565b80638da5cb5b116100d15780638da5cb5b1461056d57806395d89b41146105985780639a6bd379146105c3578063a1f64671146105df576101e3565b806367d2e88e146104d25780636a627842146104fd57806370a0823114610519578063715018a614610556576101e3565b806323b872dd1161017a57806342842e0e1161014957806342842e0e146104065780634cd88b761461042f5780634f6ccce7146104585780636352211e14610495576101e3565b806323b872dd146103475780632d34ba79146103705780632f745c59146103995780633bc5de30146103d6576101e3565b8063081812fc116101b6578063081812fc14610276578063095ea7b3146102b35780630ad4c4f4146102dc57806318160ddd1461031c576101e3565b806301ffc9a7146101e557806306a8c9931461022257806306fdde031461024b576101e3565b366101e357005b005b3480156101f157600080fd5b5061020c60048036038101906102079190612feb565b610780565b6040516102199190613033565b60405180910390f35b34801561022e57600080fd5b5061024960048036038101906102449190613194565b610792565b005b34801561025757600080fd5b506102606107be565b60405161026d919061328b565b60405180910390f35b34801561028257600080fd5b5061029d600480360381019061029891906132e3565b610850565b6040516102aa9190613351565b60405180910390f35b3480156102bf57600080fd5b506102da60048036038101906102d59190613398565b610896565b005b3480156102e857600080fd5b5061030360048036038101906102fe91906132e3565b6109ad565b60405161031394939291906133e7565b60405180910390f35b34801561032857600080fd5b50610331610a5e565b60405161033e919061342c565b60405180910390f35b34801561035357600080fd5b5061036e60048036038101906103699190613447565b610a6b565b005b34801561037c57600080fd5b506103976004803603810190610392919061349a565b610acb565b005b3480156103a557600080fd5b506103c060048036038101906103bb9190613398565b610beb565b6040516103cd919061342c565b60405180910390f35b3480156103e257600080fd5b506103eb610c90565b6040516103fd969594939291906134da565b60405180910390f35b34801561041257600080fd5b5061042d60048036038101906104289190613447565b610cbd565b005b34801561043b57600080fd5b5061045660048036038101906104519190613194565b610cdd565b005b34801561046457600080fd5b5061047f600480360381019061047a91906132e3565b610e2f565b60405161048c919061342c565b60405180910390f35b3480156104a157600080fd5b506104bc60048036038101906104b791906132e3565b610ea0565b6040516104c99190613351565b60405180910390f35b3480156104de57600080fd5b506104e7610f26565b6040516104f4919061328b565b60405180910390f35b6105176004803603810190610512919061353b565b610fb4565b005b34801561052557600080fd5b50610540600480360381019061053b919061353b565b61123f565b60405161054d919061342c565b60405180910390f35b34801561056257600080fd5b5061056b6112f6565b005b34801561057957600080fd5b5061058261130a565b60405161058f9190613351565b60405180910390f35b3480156105a457600080fd5b506105ad611334565b6040516105ba919061328b565b60405180910390f35b6105dd60048036038101906105d891906132e3565b6113c6565b005b3480156105eb57600080fd5b506105f46116a4565b6040516106019190613351565b60405180910390f35b34801561061657600080fd5b50610631600480360381019061062c9190613594565b6116ca565b005b34801561063f57600080fd5b5061065a60048036038101906106559190613675565b6116e0565b005b34801561066857600080fd5b50610683600480360381019061067e91906132e3565b611742565b604051610690919061328b565b60405180910390f35b3480156106a557600080fd5b506106ae61177f565b6040516106bb919061328b565b60405180910390f35b3480156106d057600080fd5b506106eb60048036038101906106e6919061349a565b61180d565b6040516106f89190613033565b60405180910390f35b34801561070d57600080fd5b506107286004803603810190610723919061353b565b6118a1565b005b34801561073657600080fd5b5061073f611924565b60405161074c9190613351565b60405180910390f35b34801561076157600080fd5b5061076a61194a565b604051610777919061342c565b60405180910390f35b600061078b82611950565b9050919050565b61079a6119ca565b8160fc90816107a99190613904565b508060fd90816107b99190613904565b505050565b6060606580546107cd90613727565b80601f01602080910402602001604051908101604052809291908181526020018280546107f990613727565b80156108465780601f1061081b57610100808354040283529160200191610846565b820191906000526020600020905b81548152906001019060200180831161082957829003601f168201915b5050505050905090565b600061085b82611a48565b6069600083815260200190815260200160002060009054906101000a900473ffffffffffffffffffffffffffffffffffffffff169050919050565b60006108a182610ea0565b90508073ffffffffffffffffffffffffffffffffffffffff168373ffffffffffffffffffffffffffffffffffffffff1603610911576040517f08c379a000000000000000000000000000000000000000000000000000000000815260040161090890613a48565b60405180910390fd5b8073ffffffffffffffffffffffffffffffffffffffff16610930611a93565b73ffffffffffffffffffffffffffffffffffffffff16148061095f575061095e81610959611a93565b61180d565b5b61099e576040517f08c379a000000000000000000000000000000000000000000000000000000000815260040161099590613ada565b60405180910390fd5b6109a88383611a9b565b505050565b60008060008061010085815481106109c8576109c7613afa565b5b90600052602060002090600402016000015461010086815481106109ef576109ee613afa565b5b9060005260206000209060040201600101546101008781548110610a1657610a15613afa565b5b9060005260206000209060040201600201546101008881548110610a3d57610a3c613afa565b5b90600052602060002090600402016003015493509350935093509193509193565b6000609980549050905090565b610a7c610a76611a93565b82611b54565b610abb576040517f08c379a0000000000000000000000000000000000000000000000000000000008152600401610ab290613b9b565b60405180910390fd5b610ac6838383611be9565b505050565b610ad36119ca565b600060fb5414610ae257600080fd5b600160fb819055508160fe60006101000a81548173ffffffffffffffffffffffffffffffffffffffff021916908373ffffffffffffffffffffffffffffffffffffffff1602179055508060ff60006101000a81548173ffffffffffffffffffffffffffffffffffffffff021916908373ffffffffffffffffffffffffffffffffffffffff1602179055506101006040518060800160405280600081526020016000815260200160008152602001600081525090806001815401808255809150506001900390600052602060002090600402016000909190919091506000820151816000015560208201518160010155604082015181600201556060820151816003015550505050565b6000610bf68361123f565b8210610c37576040517f08c379a0000000000000000000000000000000000000000000000000000000008152600401610c2e90613c2d565b60405180910390fd5b609760008473ffffffffffffffffffffffffffffffffffffffff1673ffffffffffffffffffffffffffffffffffffffff168152602001908152602001600020600083815260200190815260200160002054905092915050565b60008060008060008060fb5461010080549050600080600080955095509550955095509550909192939495565b610cd8838383604051806020016040528060008152506116e0565b505050565b60008060019054906101000a900460ff16159050808015610d0e5750600160008054906101000a900460ff1660ff16105b80610d3b5750610d1d30611ee2565b158015610d3a5750600160008054906101000a900460ff1660ff16145b5b610d7a576040517f08c379a0000000000000000000000000000000000000000000000000000000008152600401610d7190613cbf565b60405180910390fd5b60016000806101000a81548160ff021916908360ff1602179055508015610db7576001600060016101000a81548160ff0219169083151502179055505b610dc18383611f05565b610dc9611f62565b610dd1611fb3565b8015610e2a5760008060016101000a81548160ff0219169083151502179055507f7f26b83ff96e1f2b6a682f133852f6798a09c465da95921460cefb38474024986001604051610e219190613d27565b60405180910390a15b505050565b6000610e39610a5e565b8210610e7a576040517f08c379a0000000000000000000000000000000000000000000000000000000008152600401610e7190613db4565b60405180910390fd5b60998281548110610e8e57610e8d613afa565b5b90600052602060002001549050919050565b600080610eac8361200c565b9050600073ffffffffffffffffffffffffffffffffffffffff168173ffffffffffffffffffffffffffffffffffffffff1603610f1d576040517f08c379a0000000000000000000000000000000000000000000000000000000008152600401610f1490613e20565b60405180910390fd5b80915050919050565b60fd8054610f3390613727565b80601f0160208091040260200160405190810160405280929190818152602001828054610f5f90613727565b8015610fac5780601f10610f8157610100808354040283529160200191610fac565b820191906000526020600020905b815481529060010190602001808311610f8f57829003601f168201915b505050505081565b600034905068056bc75e2d631000008114611004576040517f08c379a0000000000000000000000000000000000000000000000000000000008152600401610ffb90613e8c565b60405180910390fd5b61271061010080549050111561104f576040517f08c379a000000000000000000000000000000000000000000000000000000000815260040161104690613ef8565b60405180910390fd5b600060fe60009054906101000a900473ffffffffffffffffffffffffffffffffffffffff1673ffffffffffffffffffffffffffffffffffffffff168260405161109790613f49565b60006040518083038185875af1925050503d80600081146110d4576040519150601f19603f3d011682016040523d82523d6000602084013e6110d9565b606091505b505090508061111d576040517f08c379a000000000000000000000000000000000000000000000000000000000815260040161111490613faa565b60405180910390fd5b60006101008054905090506101006040518060800160405280838152602001428152602001858152602001600081525090806001815401808255809150506001900390600052602060002090600402016000909190919091506000820151816000015560208201518160010155604082015181600201556060820151816003015550506111aa8482612049565b60ff60009054906101000a900473ffffffffffffffffffffffffffffffffffffffff1673ffffffffffffffffffffffffffffffffffffffff16632cb3f9c282856040518363ffffffff1660e01b8152600401611207929190613fca565b600060405180830381600087803b15801561122157600080fd5b505af1158015611235573d6000803e3d6000fd5b5050505050505050565b60008073ffffffffffffffffffffffffffffffffffffffff168273ffffffffffffffffffffffffffffffffffffffff16036112af576040517f08c379a00000000000000000000000000000000000000000000000000000000081526004016112a690614065565b60405180910390fd5b606860008373ffffffffffffffffffffffffffffffffffffffff1673ffffffffffffffffffffffffffffffffffffffff168152602001908152602001600020549050919050565b6112fe6119ca565b6113086000612266565b565b600060c960009054906101000a900473ffffffffffffffffffffffffffffffffffffffff16905090565b60606066805461134390613727565b80601f016020809104026020016040519081016040528092919081815260200182805461136f90613727565b80156113bc5780601f10611391576101008083540402835291602001916113bc565b820191906000526020600020905b81548152906001019060200180831161139f57829003601f168201915b5050505050905090565b6000349050670de0b6b3a76400008111611415576040517f08c379a000000000000000000000000000000000000000000000000000000000815260040161140c906140d1565b60405180910390fd5b60008211801561142b5750610100805490508211155b61146a576040517f08c379a00000000000000000000000000000000000000000000000000000000081526004016114619061413d565b60405180910390fd5b61147382610ea0565b73ffffffffffffffffffffffffffffffffffffffff163373ffffffffffffffffffffffffffffffffffffffff16146114e0576040517f08c379a00000000000000000000000000000000000000000000000000000000081526004016114d7906141a9565b60405180910390fd5b600060fe60009054906101000a900473ffffffffffffffffffffffffffffffffffffffff1673ffffffffffffffffffffffffffffffffffffffff168260405161152890613f49565b60006040518083038185875af1925050503d8060008114611565576040519150601f19603f3d011682016040523d82523d6000602084013e61156a565b606091505b50509050806115ae576040517f08c379a00000000000000000000000000000000000000000000000000000000081526004016115a590613faa565b60405180910390fd5b60008261010085815481106115c6576115c5613afa565b5b9060005260206000209060040201600301546115e291906141f8565b90508061010085815481106115fa576115f9613afa565b5b90600052602060002090600402016003018190555060ff60009054906101000a900473ffffffffffffffffffffffffffffffffffffffff1673ffffffffffffffffffffffffffffffffffffffff166310889aac85836040518363ffffffff1660e01b815260040161166c929190613fca565b600060405180830381600087803b15801561168657600080fd5b505af115801561169a573d6000803e3d6000fd5b5050505050505050565b60ff60009054906101000a900473ffffffffffffffffffffffffffffffffffffffff1681565b6116dc6116d5611a93565b838361232c565b5050565b6116f16116eb611a93565b83611b54565b611730576040517f08c379a000000000000000000000000000000000000000000000000000000000815260040161172790613b9b565b60405180910390fd5b61173c84848484612498565b50505050565b6060600061174f836124f4565b905060fc8160fd604051602001611768939291906142eb565b604051602081830303815290604052915050919050565b60fc805461178c90613727565b80601f01602080910402602001604051908101604052809291908181526020018280546117b890613727565b80156118055780601f106117da57610100808354040283529160200191611805565b820191906000526020600020905b8154815290600101906020018083116117e857829003601f168201915b505050505081565b6000606a60008473ffffffffffffffffffffffffffffffffffffffff1673ffffffffffffffffffffffffffffffffffffffff16815260200190815260200160002060008373ffffffffffffffffffffffffffffffffffffffff1673ffffffffffffffffffffffffffffffffffffffff16815260200190815260200160002060009054906101000a900460ff16905092915050565b6118a96119ca565b600073ffffffffffffffffffffffffffffffffffffffff168173ffffffffffffffffffffffffffffffffffffffff1603611918576040517f08c379a000000000000000000000000000000000000000000000000000000000815260040161190f9061438e565b60405180910390fd5b61192181612266565b50565b60fe60009054906101000a900473ffffffffffffffffffffffffffffffffffffffff1681565b60fb5481565b60007f780e9d63000000000000000000000000000000000000000000000000000000007bffffffffffffffffffffffffffffffffffffffffffffffffffffffff1916827bffffffffffffffffffffffffffffffffffffffffffffffffffffffff191614806119c357506119c2826125c2565b5b9050919050565b6119d2611a93565b73ffffffffffffffffffffffffffffffffffffffff166119f061130a565b73ffffffffffffffffffffffffffffffffffffffff1614611a46576040517f08c379a0000000000000000000000000000000000000000000000000000000008152600401611a3d906143fa565b60405180910390fd5b565b611a51816126a4565b611a90576040517f08c379a0000000000000000000000000000000000000000000000000000000008152600401611a8790613e20565b60405180910390fd5b50565b600033905090565b816069600083815260200190815260200160002060006101000a81548173ffffffffffffffffffffffffffffffffffffffff021916908373ffffffffffffffffffffffffffffffffffffffff160217905550808273ffffffffffffffffffffffffffffffffffffffff16611b0e83610ea0565b73ffffffffffffffffffffffffffffffffffffffff167f8c5be1e5ebec7d5bd14f71427d1e84f3dd0314c0f7b2291e5b200ac8c7c3b92560405160405180910390a45050565b600080611b6083610ea0565b90508073ffffffffffffffffffffffffffffffffffffffff168473ffffffffffffffffffffffffffffffffffffffff161480611ba25750611ba1818561180d565b5b80611be057508373ffffffffffffffffffffffffffffffffffffffff16611bc884610850565b73ffffffffffffffffffffffffffffffffffffffff16145b91505092915050565b8273ffffffffffffffffffffffffffffffffffffffff16611c0982610ea0565b73ffffffffffffffffffffffffffffffffffffffff1614611c5f576040517f08c379a0000000000000000000000000000000000000000000000000000000008152600401611c569061448c565b60405180910390fd5b600073ffffffffffffffffffffffffffffffffffffffff168273ffffffffffffffffffffffffffffffffffffffff1603611cce576040517f08c379a0000000000000000000000000000000000000000000000000000000008152600401611cc59061451e565b60405180910390fd5b611cdb83838360016126e5565b8273ffffffffffffffffffffffffffffffffffffffff16611cfb82610ea0565b73ffffffffffffffffffffffffffffffffffffffff1614611d51576040517f08c379a0000000000000000000000000000000000000000000000000000000008152600401611d489061448c565b60405180910390fd5b6069600082815260200190815260200160002060006101000a81549073ffffffffffffffffffffffffffffffffffffffff02191690556001606860008573ffffffffffffffffffffffffffffffffffffffff1673ffffffffffffffffffffffffffffffffffffffff168152602001908152602001600020600082825403925050819055506001606860008473ffffffffffffffffffffffffffffffffffffffff1673ffffffffffffffffffffffffffffffffffffffff16815260200190815260200160002060008282540192505081905550816067600083815260200190815260200160002060006101000a81548173ffffffffffffffffffffffffffffffffffffffff021916908373ffffffffffffffffffffffffffffffffffffffff160217905550808273ffffffffffffffffffffffffffffffffffffffff168473ffffffffffffffffffffffffffffffffffffffff167fddf252ad1be2c89b69c2b068fc378daa952ba7f163c4a11628f55a4df523b3ef60405160405180910390a4611edd83838360016126f7565b505050565b6000808273ffffffffffffffffffffffffffffffffffffffff163b119050919050565b600060019054906101000a900460ff16611f54576040517f08c379a0000000000000000000000000000000000000000000000000000000008152600401611f4b906145b0565b60405180910390fd5b611f5e82826126fd565b5050565b600060019054906101000a900460ff16611fb1576040517f08c379a0000000000000000000000000000000000000000000000000000000008152600401611fa8906145b0565b60405180910390fd5b565b600060019054906101000a900460ff16612002576040517f08c379a0000000000000000000000000000000000000000000000000000000008152600401611ff9906145b0565b60405180910390fd5b61200a612770565b565b60006067600083815260200190815260200160002060009054906101000a900473ffffffffffffffffffffffffffffffffffffffff169050919050565b600073ffffffffffffffffffffffffffffffffffffffff168273ffffffffffffffffffffffffffffffffffffffff16036120b8576040517f08c379a00000000000000000000000000000000000000000000000000000000081526004016120af9061461c565b60405180910390fd5b6120c1816126a4565b15612101576040517f08c379a00000000000000000000000000000000000000000000000000000000081526004016120f890614688565b60405180910390fd5b61210f6000838360016126e5565b612118816126a4565b15612158576040517f08c379a000000000000000000000000000000000000000000000000000000000815260040161214f90614688565b60405180910390fd5b6001606860008473ffffffffffffffffffffffffffffffffffffffff1673ffffffffffffffffffffffffffffffffffffffff16815260200190815260200160002060008282540192505081905550816067600083815260200190815260200160002060006101000a81548173ffffffffffffffffffffffffffffffffffffffff021916908373ffffffffffffffffffffffffffffffffffffffff160217905550808273ffffffffffffffffffffffffffffffffffffffff16600073ffffffffffffffffffffffffffffffffffffffff167fddf252ad1be2c89b69c2b068fc378daa952ba7f163c4a11628f55a4df523b3ef60405160405180910390a46122626000838360016126f7565b5050565b600060c960009054906101000a900473ffffffffffffffffffffffffffffffffffffffff1690508160c960006101000a81548173ffffffffffffffffffffffffffffffffffffffff021916908373ffffffffffffffffffffffffffffffffffffffff1602179055508173ffffffffffffffffffffffffffffffffffffffff168173ffffffffffffffffffffffffffffffffffffffff167f8be0079c531659141344cd1fd0a4f28419497f9722a3daafe3b4186f6b6457e060405160405180910390a35050565b8173ffffffffffffffffffffffffffffffffffffffff168373ffffffffffffffffffffffffffffffffffffffff160361239a576040517f08c379a0000000000000000000000000000000000000000000000000000000008152600401612391906146f4565b60405180910390fd5b80606a60008573ffffffffffffffffffffffffffffffffffffffff1673ffffffffffffffffffffffffffffffffffffffff16815260200190815260200160002060008473ffffffffffffffffffffffffffffffffffffffff1673ffffffffffffffffffffffffffffffffffffffff16815260200190815260200160002060006101000a81548160ff0219169083151502179055508173ffffffffffffffffffffffffffffffffffffffff168373ffffffffffffffffffffffffffffffffffffffff167f17307eab39ab6107e8899845ad3d59bd9653f200f220920489ca2b5937696c318360405161248b9190613033565b60405180910390a3505050565b6124a3848484611be9565b6124af848484846127d1565b6124ee576040517f08c379a00000000000000000000000000000000000000000000000000000000081526004016124e590614786565b60405180910390fd5b50505050565b60606000600161250384612958565b01905060008167ffffffffffffffff81111561252257612521613069565b5b6040519080825280601f01601f1916602001820160405280156125545781602001600182028036833780820191505090505b509050600082602001820190505b6001156125b7578080600190039150507f3031323334353637383961626364656600000000000000000000000000000000600a86061a8153600a85816125ab576125aa6147a6565b5b04945060008503612562575b819350505050919050565b60007f80ac58cd000000000000000000000000000000000000000000000000000000007bffffffffffffffffffffffffffffffffffffffffffffffffffffffff1916827bffffffffffffffffffffffffffffffffffffffffffffffffffffffff1916148061268d57507f5b5e139f000000000000000000000000000000000000000000000000000000007bffffffffffffffffffffffffffffffffffffffffffffffffffffffff1916827bffffffffffffffffffffffffffffffffffffffffffffffffffffffff1916145b8061269d575061269c82612aab565b5b9050919050565b60008073ffffffffffffffffffffffffffffffffffffffff166126c68361200c565b73ffffffffffffffffffffffffffffffffffffffff1614159050919050565b6126f184848484612b15565b50505050565b50505050565b600060019054906101000a900460ff1661274c576040517f08c379a0000000000000000000000000000000000000000000000000000000008152600401612743906145b0565b60405180910390fd5b816065908161275b9190613904565b50806066908161276b9190613904565b505050565b600060019054906101000a900460ff166127bf576040517f08c379a00000000000000000000000000000000000000000000000000000000081526004016127b6906145b0565b60405180910390fd5b6127cf6127ca611a93565b612266565b565b60006127f28473ffffffffffffffffffffffffffffffffffffffff16611ee2565b1561294b578373ffffffffffffffffffffffffffffffffffffffff1663150b7a0261281b611a93565b8786866040518563ffffffff1660e01b815260040161283d949392919061482a565b6020604051808303816000875af192505050801561287957506040513d601f19601f82011682018060405250810190612876919061488b565b60015b6128fb573d80600081146128a9576040519150601f19603f3d011682016040523d82523d6000602084013e6128ae565b606091505b5060008151036128f3576040517f08c379a00000000000000000000000000000000000000000000000000000000081526004016128ea90614786565b60405180910390fd5b805181602001fd5b63150b7a0260e01b7bffffffffffffffffffffffffffffffffffffffffffffffffffffffff1916817bffffffffffffffffffffffffffffffffffffffffffffffffffffffff191614915050612950565b600190505b949350505050565b600080600090507a184f03e93ff9f4daa797ed6e38ed64bf6a1f01000000000000000083106129b6577a184f03e93ff9f4daa797ed6e38ed64bf6a1f01000000000000000083816129ac576129ab6147a6565b5b0492506040810190505b6d04ee2d6d415b85acef810000000083106129f3576d04ee2d6d415b85acef810000000083816129e9576129e86147a6565b5b0492506020810190505b662386f26fc100008310612a2257662386f26fc100008381612a1857612a176147a6565b5b0492506010810190505b6305f5e1008310612a4b576305f5e1008381612a4157612a406147a6565b5b0492506008810190505b6127108310612a70576127108381612a6657612a656147a6565b5b0492506004810190505b60648310612a935760648381612a8957612a886147a6565b5b0492506002810190505b600a8310612aa2576001810190505b80915050919050565b60007f01ffc9a7000000000000000000000000000000000000000000000000000000007bffffffffffffffffffffffffffffffffffffffffffffffffffffffff1916827bffffffffffffffffffffffffffffffffffffffffffffffffffffffff1916149050919050565b612b2184848484612c73565b6001811115612b65576040517f08c379a0000000000000000000000000000000000000000000000000000000008152600401612b5c9061492a565b60405180910390fd5b6000829050600073ffffffffffffffffffffffffffffffffffffffff168573ffffffffffffffffffffffffffffffffffffffff1603612bac57612ba781612c79565b612beb565b8373ffffffffffffffffffffffffffffffffffffffff168573ffffffffffffffffffffffffffffffffffffffff1614612bea57612be98582612cc2565b5b5b600073ffffffffffffffffffffffffffffffffffffffff168473ffffffffffffffffffffffffffffffffffffffff1603612c2d57612c2881612e2f565b612c6c565b8473ffffffffffffffffffffffffffffffffffffffff168473ffffffffffffffffffffffffffffffffffffffff1614612c6b57612c6a8482612f00565b5b5b5050505050565b50505050565b609980549050609a600083815260200190815260200160002081905550609981908060018154018082558091505060019003906000526020600020016000909190919091505550565b60006001612ccf8461123f565b612cd9919061494a565b9050600060986000848152602001908152602001600020549050818114612dbe576000609760008673ffffffffffffffffffffffffffffffffffffffff1673ffffffffffffffffffffffffffffffffffffffff168152602001908152602001600020600084815260200190815260200160002054905080609760008773ffffffffffffffffffffffffffffffffffffffff1673ffffffffffffffffffffffffffffffffffffffff168152602001908152602001600020600084815260200190815260200160002081905550816098600083815260200190815260200160002081905550505b6098600084815260200190815260200160002060009055609760008573ffffffffffffffffffffffffffffffffffffffff1673ffffffffffffffffffffffffffffffffffffffff16815260200190815260200160002060008381526020019081526020016000206000905550505050565b60006001609980549050612e43919061494a565b90506000609a6000848152602001908152602001600020549050600060998381548110612e7357612e72613afa565b5b906000526020600020015490508060998381548110612e9557612e94613afa565b5b906000526020600020018190555081609a600083815260200190815260200160002081905550609a6000858152602001908152602001600020600090556099805480612ee457612ee361497e565b5b6001900381819060005260206000200160009055905550505050565b6000612f0b8361123f565b905081609760008573ffffffffffffffffffffffffffffffffffffffff1673ffffffffffffffffffffffffffffffffffffffff168152602001908152602001600020600083815260200190815260200160002081905550806098600084815260200190815260200160002081905550505050565b6000604051905090565b600080fd5b600080fd5b60007fffffffff0000000000000000000000000000000000000000000000000000000082169050919050565b612fc881612f93565b8114612fd357600080fd5b50565b600081359050612fe581612fbf565b92915050565b60006020828403121561300157613000612f89565b5b600061300f84828501612fd6565b91505092915050565b60008115159050919050565b61302d81613018565b82525050565b60006020820190506130486000830184613024565b92915050565b600080fd5b600080fd5b6000601f19601f8301169050919050565b7f4e487b7100000000000000000000000000000000000000000000000000000000600052604160045260246000fd5b6130a182613058565b810181811067ffffffffffffffff821117156130c0576130bf613069565b5b80604052505050565b60006130d3612f7f565b90506130df8282613098565b919050565b600067ffffffffffffffff8211156130ff576130fe613069565b5b61310882613058565b9050602081019050919050565b82818337600083830152505050565b6000613137613132846130e4565b6130c9565b90508281526020810184848401111561315357613152613053565b5b61315e848285613115565b509392505050565b600082601f83011261317b5761317a61304e565b5b813561318b848260208601613124565b91505092915050565b600080604083850312156131ab576131aa612f89565b5b600083013567ffffffffffffffff8111156131c9576131c8612f8e565b5b6131d585828601613166565b925050602083013567ffffffffffffffff8111156131f6576131f5612f8e565b5b61320285828601613166565b9150509250929050565b600081519050919050565b600082825260208201905092915050565b60005b8381101561324657808201518184015260208101905061322b565b60008484015250505050565b600061325d8261320c565b6132678185613217565b9350613277818560208601613228565b61328081613058565b840191505092915050565b600060208201905081810360008301526132a58184613252565b905092915050565b6000819050919050565b6132c0816132ad565b81146132cb57600080fd5b50565b6000813590506132dd816132b7565b92915050565b6000602082840312156132f9576132f8612f89565b5b6000613307848285016132ce565b91505092915050565b600073ffffffffffffffffffffffffffffffffffffffff82169050919050565b600061333b82613310565b9050919050565b61334b81613330565b82525050565b60006020820190506133666000830184613342565b92915050565b61337581613330565b811461338057600080fd5b50565b6000813590506133928161336c565b92915050565b600080604083850312156133af576133ae612f89565b5b60006133bd85828601613383565b92505060206133ce858286016132ce565b9150509250929050565b6133e1816132ad565b82525050565b60006080820190506133fc60008301876133d8565b61340960208301866133d8565b61341660408301856133d8565b61342360608301846133d8565b95945050505050565b600060208201905061344160008301846133d8565b92915050565b6000806000606084860312156134605761345f612f89565b5b600061346e86828701613383565b935050602061347f86828701613383565b9250506040613490868287016132ce565b9150509250925092565b600080604083850312156134b1576134b0612f89565b5b60006134bf85828601613383565b92505060206134d085828601613383565b9150509250929050565b600060c0820190506134ef60008301896133d8565b6134fc60208301886133d8565b61350960408301876133d8565b61351660608301866133d8565b61352360808301856133d8565b61353060a08301846133d8565b979650505050505050565b60006020828403121561355157613550612f89565b5b600061355f84828501613383565b91505092915050565b61357181613018565b811461357c57600080fd5b50565b60008135905061358e81613568565b92915050565b600080604083850312156135ab576135aa612f89565b5b60006135b985828601613383565b92505060206135ca8582860161357f565b9150509250929050565b600067ffffffffffffffff8211156135ef576135ee613069565b5b6135f882613058565b9050602081019050919050565b6000613618613613846135d4565b6130c9565b90508281526020810184848401111561363457613633613053565b5b61363f848285613115565b509392505050565b600082601f83011261365c5761365b61304e565b5b813561366c848260208601613605565b91505092915050565b6000806000806080858703121561368f5761368e612f89565b5b600061369d87828801613383565b94505060206136ae87828801613383565b93505060406136bf878288016132ce565b925050606085013567ffffffffffffffff8111156136e0576136df612f8e565b5b6136ec87828801613647565b91505092959194509250565b7f4e487b7100000000000000000000000000000000000000000000000000000000600052602260045260246000fd5b6000600282049050600182168061373f57607f821691505b602082108103613752576137516136f8565b5b50919050565b60008190508160005260206000209050919050565b60006020601f8301049050919050565b600082821b905092915050565b6000600883026137ba7fffffffffffffffffffffffffffffffffffffffffffffffffffffffffffffffff8261377d565b6137c4868361377d565b95508019841693508086168417925050509392505050565b6000819050919050565b60006138016137fc6137f7846132ad565b6137dc565b6132ad565b9050919050565b6000819050919050565b61381b836137e6565b61382f61382782613808565b84845461378a565b825550505050565b600090565b613844613837565b61384f818484613812565b505050565b5b818110156138735761386860008261383c565b600181019050613855565b5050565b601f8211156138b85761388981613758565b6138928461376d565b810160208510156138a1578190505b6138b56138ad8561376d565b830182613854565b50505b505050565b600082821c905092915050565b60006138db600019846008026138bd565b1980831691505092915050565b60006138f483836138ca565b9150826002028217905092915050565b61390d8261320c565b67ffffffffffffffff81111561392657613925613069565b5b6139308254613727565b61393b828285613877565b600060209050601f83116001811461396e576000841561395c578287015190505b61396685826138e8565b8655506139ce565b601f19841661397c86613758565b60005b828110156139a45784890151825560018201915060208501945060208101905061397f565b868310156139c157848901516139bd601f8916826138ca565b8355505b6001600288020188555050505b505050505050565b7f4552433732313a20617070726f76616c20746f2063757272656e74206f776e6560008201527f7200000000000000000000000000000000000000000000000000000000000000602082015250565b6000613a32602183613217565b9150613a3d826139d6565b604082019050919050565b60006020820190508181036000830152613a6181613a25565b9050919050565b7f4552433732313a20617070726f76652063616c6c6572206973206e6f7420746f60008201527f6b656e206f776e6572206f7220617070726f76656420666f7220616c6c000000602082015250565b6000613ac4603d83613217565b9150613acf82613a68565b604082019050919050565b60006020820190508181036000830152613af381613ab7565b9050919050565b7f4e487b7100000000000000000000000000000000000000000000000000000000600052603260045260246000fd5b7f4552433732313a2063616c6c6572206973206e6f7420746f6b656e206f776e6560008201527f72206f7220617070726f76656400000000000000000000000000000000000000602082015250565b6000613b85602d83613217565b9150613b9082613b29565b604082019050919050565b60006020820190508181036000830152613bb481613b78565b9050919050565b7f455243373231456e756d657261626c653a206f776e657220696e646578206f7560008201527f74206f6620626f756e6473000000000000000000000000000000000000000000602082015250565b6000613c17602b83613217565b9150613c2282613bbb565b604082019050919050565b60006020820190508181036000830152613c4681613c0a565b9050919050565b7f496e697469616c697a61626c653a20636f6e747261637420697320616c72656160008201527f647920696e697469616c697a6564000000000000000000000000000000000000602082015250565b6000613ca9602e83613217565b9150613cb482613c4d565b604082019050919050565b60006020820190508181036000830152613cd881613c9c565b9050919050565b6000819050919050565b600060ff82169050919050565b6000613d11613d0c613d0784613cdf565b6137dc565b613ce9565b9050919050565b613d2181613cf6565b82525050565b6000602082019050613d3c6000830184613d18565b92915050565b7f455243373231456e756d657261626c653a20676c6f62616c20696e646578206f60008201527f7574206f6620626f756e64730000000000000000000000000000000000000000602082015250565b6000613d9e602c83613217565b9150613da982613d42565b604082019050919050565b60006020820190508181036000830152613dcd81613d91565b9050919050565b7f4552433732313a20696e76616c696420746f6b656e2049440000000000000000600082015250565b6000613e0a601883613217565b9150613e1582613dd4565b602082019050919050565b60006020820190508181036000830152613e3981613dfd565b9050919050565b7f70726963652069732031303020636f696e000000000000000000000000000000600082015250565b6000613e76601183613217565b9150613e8182613e40565b602082019050919050565b60006020820190508181036000830152613ea581613e69565b9050919050565b7f6d6178696d756d203130303030206e6674000000000000000000000000000000600082015250565b6000613ee2601183613217565b9150613eed82613eac565b602082019050919050565b60006020820190508181036000830152613f1181613ed5565b9050919050565b600081905092915050565b50565b6000613f33600083613f18565b9150613f3e82613f23565b600082019050919050565b6000613f5482613f26565b9150819050919050565b7f6661696c656420746f2073656e64000000000000000000000000000000000000600082015250565b6000613f94600e83613217565b9150613f9f82613f5e565b602082019050919050565b60006020820190508181036000830152613fc381613f87565b9050919050565b6000604082019050613fdf60008301856133d8565b613fec60208301846133d8565b9392505050565b7f4552433732313a2061646472657373207a65726f206973206e6f74206120766160008201527f6c6964206f776e65720000000000000000000000000000000000000000000000602082015250565b600061404f602983613217565b915061405a82613ff3565b604082019050919050565b6000602082019050818103600083015261407e81614042565b9050919050565b7f6d696e696d756d206973203120636f696e000000000000000000000000000000600082015250565b60006140bb601183613217565b91506140c682614085565b602082019050919050565b600060208201905081810360008301526140ea816140ae565b9050919050565b7f6f7574206f6620696e6465780000000000000000000000000000000000000000600082015250565b6000614127600c83613217565b9150614132826140f1565b602082019050919050565b600060208201905081810360008301526141568161411a565b9050919050565b7f6e6f74206f776e65720000000000000000000000000000000000000000000000600082015250565b6000614193600983613217565b915061419e8261415d565b602082019050919050565b600060208201905081810360008301526141c281614186565b9050919050565b7f4e487b7100000000000000000000000000000000000000000000000000000000600052601160045260246000fd5b6000614203826132ad565b915061420e836132ad565b9250828201905080821115614226576142256141c9565b5b92915050565b600081905092915050565b6000815461424481613727565b61424e818661422c565b94506001821660008114614269576001811461427e576142b1565b60ff19831686528115158202860193506142b1565b61428785613758565b60005b838110156142a95781548189015260018201915060208101905061428a565b838801955050505b50505092915050565b60006142c58261320c565b6142cf818561422c565b93506142df818560208601613228565b80840191505092915050565b60006142f78286614237565b915061430382856142ba565b915061430f8284614237565b9150819050949350505050565b7f4f776e61626c653a206e6577206f776e657220697320746865207a65726f206160008201527f6464726573730000000000000000000000000000000000000000000000000000602082015250565b6000614378602683613217565b91506143838261431c565b604082019050919050565b600060208201905081810360008301526143a78161436b565b9050919050565b7f4f776e61626c653a2063616c6c6572206973206e6f7420746865206f776e6572600082015250565b60006143e4602083613217565b91506143ef826143ae565b602082019050919050565b60006020820190508181036000830152614413816143d7565b9050919050565b7f4552433732313a207472616e736665722066726f6d20696e636f72726563742060008201527f6f776e6572000000000000000000000000000000000000000000000000000000602082015250565b6000614476602583613217565b91506144818261441a565b604082019050919050565b600060208201905081810360008301526144a581614469565b9050919050565b7f4552433732313a207472616e7366657220746f20746865207a65726f2061646460008201527f7265737300000000000000000000000000000000000000000000000000000000602082015250565b6000614508602483613217565b9150614513826144ac565b604082019050919050565b60006020820190508181036000830152614537816144fb565b9050919050565b7f496e697469616c697a61626c653a20636f6e7472616374206973206e6f74206960008201527f6e697469616c697a696e67000000000000000000000000000000000000000000602082015250565b600061459a602b83613217565b91506145a58261453e565b604082019050919050565b600060208201905081810360008301526145c98161458d565b9050919050565b7f4552433732313a206d696e7420746f20746865207a65726f2061646472657373600082015250565b6000614606602083613217565b9150614611826145d0565b602082019050919050565b60006020820190508181036000830152614635816145f9565b9050919050565b7f4552433732313a20746f6b656e20616c7265616479206d696e74656400000000600082015250565b6000614672601c83613217565b915061467d8261463c565b602082019050919050565b600060208201905081810360008301526146a181614665565b9050919050565b7f4552433732313a20617070726f766520746f2063616c6c657200000000000000600082015250565b60006146de601983613217565b91506146e9826146a8565b602082019050919050565b6000602082019050818103600083015261470d816146d1565b9050919050565b7f4552433732313a207472616e7366657220746f206e6f6e20455243373231526560008201527f63656976657220696d706c656d656e7465720000000000000000000000000000602082015250565b6000614770603283613217565b915061477b82614714565b604082019050919050565b6000602082019050818103600083015261479f81614763565b9050919050565b7f4e487b7100000000000000000000000000000000000000000000000000000000600052601260045260246000fd5b600081519050919050565b600082825260208201905092915050565b60006147fc826147d5565b61480681856147e0565b9350614816818560208601613228565b61481f81613058565b840191505092915050565b600060808201905061483f6000830187613342565b61484c6020830186613342565b61485960408301856133d8565b818103606083015261486b81846147f1565b905095945050505050565b60008151905061488581612fbf565b92915050565b6000602082840312156148a1576148a0612f89565b5b60006148af84828501614876565b91505092915050565b7f455243373231456e756d657261626c653a20636f6e736563757469766520747260008201527f616e7366657273206e6f7420737570706f727465640000000000000000000000602082015250565b6000614914603583613217565b915061491f826148b8565b604082019050919050565b6000602082019050818103600083015261494381614907565b9050919050565b6000614955826132ad565b9150614960836132ad565b9250828203905081811115614978576149776141c9565b5b92915050565b7f4e487b7100000000000000000000000000000000000000000000000000000000600052603160045260246000fdfea2646970667358221220ee0e6fb37ae1013ebd84001a002bd398bc0f5dcf512f82f158a31f32be1a7f0e64736f6c63430008120033",
  "linkReferences": {},
  "deployedLinkReferences": {}
}