{
  "_format": "hh-sol-artifact-1",
  "contractName": "NFTRewardV3",
  "sourceName": "contracts/NFTRewardV3.sol",
  "abi": [
    {
      "inputs": [],
      "stateMutability": "nonpayable",
      "type": "constructor"
    },
    {
      "anonymous": false,
      "inputs": [
        {
          "indexed": true,
          "internalType": "uint256",
          "name": "nftId",
          "type": "uint256"
        },
        {
          "indexed": false,
          "internalType": "uint256",
          "name": "ts",
          "type": "uint256"
        },
        {
          "indexed": false,
          "internalType": "uint256",
          "name": "bp",
          "type": "uint256"
        }
      ],
      "name": "BasePowerSet",
      "type": "event"
    },
    {
      "anonymous": false,
      "inputs": [
        {
          "indexed": true,
          "internalType": "uint256",
          "name": "nftId",
          "type": "uint256"
        },
        {
          "indexed": true,
          "internalType": "address",
          "name": "claimer",
          "type": "address"
        },
        {
          "indexed": false,
          "internalType": "uint256",
          "name": "ts",
          "type": "uint256"
        },
        {
          "indexed": false,
          "internalType": "uint256",
          "name": "startTurn",
          "type": "uint256"
        },
        {
          "indexed": false,
          "internalType": "uint256",
          "name": "currentTurn",
          "type": "uint256"
        },
        {
          "indexed": false,
          "internalType": "uint256",
          "name": "totalReward",
          "type": "uint256"
        }
      ],
      "name": "ClaimReward",
      "type": "event"
    },
    {
      "anonymous": false,
      "inputs": [
        {
          "indexed": true,
          "internalType": "uint256",
          "name": "nftId",
          "type": "uint256"
        },
        {
          "indexed": false,
          "internalType": "uint256",
          "name": "ts",
          "type": "uint256"
        },
        {
          "indexed": false,
          "internalType": "uint256",
          "name": "epPrev",
          "type": "uint256"
        },
        {
          "indexed": false,
          "internalType": "uint256",
          "name": "ep",
          "type": "uint256"
        }
      ],
      "name": "ExtraPowerSet",
      "type": "event"
    },
    {
      "anonymous": false,
      "inputs": [
        {
          "indexed": false,
          "internalType": "uint8",
          "name": "version",
          "type": "uint8"
        }
      ],
      "name": "Initialized",
      "type": "event"
    },
    {
      "anonymous": false,
      "inputs": [
        {
          "indexed": true,
          "internalType": "address",
          "name": "previousOwner",
          "type": "address"
        },
        {
          "indexed": true,
          "internalType": "address",
          "name": "newOwner",
          "type": "address"
        }
      ],
      "name": "OwnershipTransferred",
      "type": "event"
    },
    {
      "inputs": [],
      "name": "ADDRESS_NFT",
      "outputs": [
        {
          "internalType": "address",
          "name": "",
          "type": "address"
        }
      ],
      "stateMutability": "view",
      "type": "function"
    },
    {
      "inputs": [],
      "name": "ADDRESS_POOL",
      "outputs": [
        {
          "internalType": "address",
          "name": "",
          "type": "address"
        }
      ],
      "stateMutability": "view",
      "type": "function"
    },
    {
      "inputs": [],
      "name": "ADDRESS_REWARD_TOKEN",
      "outputs": [
        {
          "internalType": "address",
          "name": "",
          "type": "address"
        }
      ],
      "stateMutability": "view",
      "type": "function"
    },
    {
      "inputs": [],
      "name": "VERSION",
      "outputs": [
        {
          "internalType": "uint256",
          "name": "",
          "type": "uint256"
        }
      ],
      "stateMutability": "view",
      "type": "function"
    },
    {
      "inputs": [],
      "name": "canUpdate",
      "outputs": [
        {
          "internalType": "bool",
          "name": "",
          "type": "bool"
        }
      ],
      "stateMutability": "view",
      "type": "function"
    },
    {
      "inputs": [
        {
          "internalType": "uint256",
          "name": "nftId",
          "type": "uint256"
        }
      ],
      "name": "claimReward",
      "outputs": [],
      "stateMutability": "nonpayable",
      "type": "function"
    },
    {
      "inputs": [],
      "name": "currentTurn",
      "outputs": [
        {
          "internalType": "uint256",
          "name": "",
          "type": "uint256"
        }
      ],
      "stateMutability": "view",
      "type": "function"
    },
    {
      "inputs": [],
      "name": "getData",
      "outputs": [
        {
          "internalType": "uint256",
          "name": "",
          "type": "uint256"
        },
        {
          "internalType": "uint256",
          "name": "",
          "type": "uint256"
        },
        {
          "internalType": "uint256",
          "name": "",
          "type": "uint256"
        },
        {
          "internalType": "uint256",
          "name": "",
          "type": "uint256"
        },
        {
          "internalType": "uint256",
          "name": "",
          "type": "uint256"
        },
        {
          "internalType": "uint256",
          "name": "",
          "type": "uint256"
        }
      ],
      "stateMutability": "view",
      "type": "function"
    },
    {
      "inputs": [
        {
          "internalType": "uint256",
          "name": "index",
          "type": "uint256"
        }
      ],
      "name": "getSessionData",
      "outputs": [
        {
          "internalType": "uint256",
          "name": "",
          "type": "uint256"
        },
        {
          "internalType": "uint256",
          "name": "",
          "type": "uint256"
        },
        {
          "internalType": "uint256",
          "name": "",
          "type": "uint256"
        },
        {
          "internalType": "uint256",
          "name": "",
          "type": "uint256"
        },
        {
          "internalType": "uint256",
          "name": "",
          "type": "uint256"
        },
        {
          "internalType": "uint256",
          "name": "",
          "type": "uint256"
        }
      ],
      "stateMutability": "view",
      "type": "function"
    },
    {
      "inputs": [
        {
          "internalType": "uint256",
          "name": "nftId",
          "type": "uint256"
        }
      ],
      "name": "getUnclaimedReward",
      "outputs": [
        {
          "internalType": "uint256",
          "name": "",
          "type": "uint256"
        },
        {
          "internalType": "uint256",
          "name": "",
          "type": "uint256"
        },
        {
          "internalType": "uint256",
          "name": "",
          "type": "uint256"
        }
      ],
      "stateMutability": "view",
      "type": "function"
    },
    {
      "inputs": [],
      "name": "initialize",
      "outputs": [],
      "stateMutability": "nonpayable",
      "type": "function"
    },
    {
      "inputs": [
        {
          "internalType": "uint256",
          "name": "",
          "type": "uint256"
        }
      ],
      "name": "nftId2basePower",
      "outputs": [
        {
          "internalType": "uint256",
          "name": "",
          "type": "uint256"
        }
      ],
      "stateMutability": "view",
      "type": "function"
    },
    {
      "inputs": [
        {
          "internalType": "uint256",
          "name": "",
          "type": "uint256"
        }
      ],
      "name": "nftId2extraPower",
      "outputs": [
        {
          "internalType": "uint256",
          "name": "",
          "type": "uint256"
        }
      ],
      "stateMutability": "view",
      "type": "function"
    },
    {
      "inputs": [
        {
          "internalType": "uint256",
          "name": "",
          "type": "uint256"
        }
      ],
      "name": "nftId2turn",
      "outputs": [
        {
          "internalType": "uint256",
          "name": "",
          "type": "uint256"
        }
      ],
      "stateMutability": "view",
      "type": "function"
    },
    {
      "inputs": [],
      "name": "owner",
      "outputs": [
        {
          "internalType": "address",
          "name": "",
          "type": "address"
        }
      ],
      "stateMutability": "view",
      "type": "function"
    },
    {
      "inputs": [],
      "name": "renounceOwnership",
      "outputs": [],
      "stateMutability": "nonpayable",
      "type": "function"
    },
    {
      "inputs": [
        {
          "internalType": "uint256",
          "name": "nftId",
          "type": "uint256"
        },
        {
          "internalType": "uint256",
          "name": "stakeAmount",
          "type": "uint256"
        }
      ],
      "name": "setBase",
      "outputs": [],
      "stateMutability": "nonpayable",
      "type": "function"
    },
    {
      "inputs": [
        {
          "internalType": "uint256",
          "name": "nftId",
          "type": "uint256"
        },
        {
          "internalType": "uint256",
          "name": "stakeAmount",
          "type": "uint256"
        }
      ],
      "name": "setExtra",
      "outputs": [],
      "stateMutability": "nonpayable",
      "type": "function"
    },
    {
      "inputs": [
        {
          "internalType": "address",
          "name": "addrN",
          "type": "address"
        },
        {
          "internalType": "address",
          "name": "addrRT",
          "type": "address"
        },
        {
          "internalType": "address",
          "name": "addrP",
          "type": "address"
        }
      ],
      "name": "setup",
      "outputs": [],
      "stateMutability": "nonpayable",
      "type": "function"
    },
    {
      "inputs": [],
      "name": "totalBasePower",
      "outputs": [
        {
          "internalType": "uint256",
          "name": "",
          "type": "uint256"
        }
      ],
      "stateMutability": "view",
      "type": "function"
    },
    {
      "inputs": [],
      "name": "totalExtraPower",
      "outputs": [
        {
          "internalType": "uint256",
          "name": "",
          "type": "uint256"
        }
      ],
      "stateMutability": "view",
      "type": "function"
    },
    {
      "inputs": [
        {
          "internalType": "address",
          "name": "newOwner",
          "type": "address"
        }
      ],
      "name": "transferOwnership",
      "outputs": [],
      "stateMutability": "nonpayable",
      "type": "function"
    },
    {
      "inputs": [
        {
          "internalType": "uint256",
          "name": "reward",
          "type": "uint256"
        }
      ],
      "name": "updateSession",
      "outputs": [],
      "stateMutability": "nonpayable",
      "type": "function"
    }
  ],
  "bytecode": "0x60806040523480156200001157600080fd5b50620000226200002860201b60201c565b620001d3565b600060019054906101000a900460ff16156200007b576040517f08c379a0000000000000000000000000000000000000000000000000000000008152600401620000729062000176565b60405180910390fd5b60ff801660008054906101000a900460ff1660ff161015620000ed5760ff6000806101000a81548160ff021916908360ff1602179055507f7f26b83ff96e1f2b6a682f133852f6798a09c465da95921460cefb384740249860ff604051620000e49190620001b6565b60405180910390a15b565b600082825260208201905092915050565b7f496e697469616c697a61626c653a20636f6e747261637420697320696e69746960008201527f616c697a696e6700000000000000000000000000000000000000000000000000602082015250565b60006200015e602783620000ef565b91506200016b8262000100565b604082019050919050565b6000602082019050818103600083015262000191816200014f565b9050919050565b600060ff82169050919050565b620001b08162000198565b82525050565b6000602082019050620001cd6000830184620001a5565b92915050565b611ca580620001e36000396000f3fe608060405234801561001057600080fd5b506004361061014d5760003560e01c80638da5cb5b116100c3578063cdc4a65f1161007c578063cdc4a65f14610386578063deb61286146103a4578063e5f330e8146103c2578063f2fde38b146103de578063fb11fe16146103fa578063ffa1ad74146104185761014d565b80638da5cb5b146102c257806393eb6f0f146102e05780639e4f5b1014610310578063a17a26851461032e578063a8aad0391461034c578063ae169a501461036a5761014d565b8063439fddf711610115578063439fddf714610212578063460e412214610242578063607d199214610274578063715018a61461029257806377b8b1c71461029c5780638129fc1c146102b85761014d565b80630a6502531461015257806310889aac146101825780632cb3f9c21461019e578063346582c6146101ba5780633bc5de30146101ef575b600080fd5b61016c6004803603810190610167919061133c565b610436565b6040516101799190611378565b60405180910390f35b61019c60048036038101906101979190611393565b61044e565b005b6101b860048036038101906101b39190611393565b61058f565b005b6101d460048036038101906101cf919061133c565b61066d565b6040516101e6969594939291906113d3565b60405180910390f35b6101f761076f565b604051610209969594939291906113d3565b60405180910390f35b61022c6004803603810190610227919061133c565b6107a0565b6040516102399190611378565b60405180910390f35b61025c6004803603810190610257919061133c565b6107b8565b60405161026b93929190611434565b60405180910390f35b61027c61090f565b60405161028991906114ac565b60405180910390f35b61029a610935565b005b6102b660048036038101906102b191906114f3565b610949565b005b6102c0610a30565b005b6102ca610b6e565b6040516102d791906114ac565b60405180910390f35b6102fa60048036038101906102f5919061133c565b610b98565b6040516103079190611378565b60405180910390f35b610318610bb0565b6040516103259190611378565b60405180910390f35b610336610bb6565b6040516103439190611561565b60405180910390f35b610354610bc2565b60405161036191906114ac565b60405180910390f35b610384600480360381019061037f919061133c565b610be8565b005b61038e610e83565b60405161039b9190611378565b60405180910390f35b6103ac610e89565b6040516103b99190611378565b60405180910390f35b6103dc60048036038101906103d7919061133c565b610e8f565b005b6103f860048036038101906103f3919061157c565b611029565b005b6104026110ac565b60405161040f91906114ac565b60405180910390f35b6104206110d2565b60405161042d9190611378565b60405180910390f35b606e6020528060005260406000206000915090505481565b606660009054906101000a900473ffffffffffffffffffffffffffffffffffffffff1673ffffffffffffffffffffffffffffffffffffffff163373ffffffffffffffffffffffffffffffffffffffff16146104a857600080fd5b606a54606d600084815260200190815260200160002054146104ff576040517f08c379a00000000000000000000000000000000000000000000000000000000081526004016104f690611606565b60405180910390fd5b6000606f60008481526020019081526020016000205490508181606c546105269190611655565b6105309190611689565b606c8190555081606f600085815260200190815260200160002081905550827fd69a05ef1d3375b7ed05442d86eb881048f94f6c54c79fec4f0e651e315991e442838560405161058293929190611434565b60405180910390a2505050565b606660009054906101000a900473ffffffffffffffffffffffffffffffffffffffff1673ffffffffffffffffffffffffffffffffffffffff163373ffffffffffffffffffffffffffffffffffffffff16146105e957600080fd5b80606b546105f79190611689565b606b81905550606a54606d60008481526020019081526020016000208190555080606e600084815260200190815260200160002081905550817f79ab3819b946f794743b7ef54f7c1c64bb29f21a7d47c49a463432e204355dcb42836040516106619291906116bd565b60405180910390a25050565b6000806000806000806069878154811061068a576106896116e6565b5b906000526020600020906006020160000154606988815481106106b0576106af6116e6565b5b906000526020600020906006020160010154606989815481106106d6576106d56116e6565b5b90600052602060002090600602016002015460698a815481106106fc576106fb6116e6565b5b90600052602060002090600602016003015460698b81548110610722576107216116e6565b5b90600052602060002090600602016004015460698c81548110610748576107476116e6565b5b90600052602060002090600602016005015495509550955095509550955091939550919395565b600080600080600080606554606980549050606a54606b54606c546000955095509550955095509550909192939495565b606f6020528060005260406000206000915090505481565b600080600080606d60008681526020019081526020016000205490506000606e60008781526020019081526020016000205490506000606f600088815260200190815260200160002054905060008060008590505b606a548110156108ee5760006069828154811061082d5761082c6116e6565b5b90600052602060002090600602016002015490506000670de0b6b3a764000087836108589190611715565b6108629190611786565b905080856108709190611689565b945060008611156108d957600060698481548110610891576108906116e6565b5b90600052602060002090600602016004015490506000670de0b6b3a764000088836108bc9190611715565b6108c69190611786565b905080866108d49190611689565b955050505b505080806108e6906117b7565b91505061080d565b5080826108fb9190611689565b828297509750975050505050509193909250565b606660009054906101000a900473ffffffffffffffffffffffffffffffffffffffff1681565b61093d6110d8565b6109476000611156565b565b6109516110d8565b60006065541461096057600080fd5b600160658190555082606660006101000a81548173ffffffffffffffffffffffffffffffffffffffff021916908373ffffffffffffffffffffffffffffffffffffffff16021790555081606760006101000a81548173ffffffffffffffffffffffffffffffffffffffff021916908373ffffffffffffffffffffffffffffffffffffffff16021790555080606860006101000a81548173ffffffffffffffffffffffffffffffffffffffff021916908373ffffffffffffffffffffffffffffffffffffffff160217905550505050565b60008060019054906101000a900460ff16159050808015610a615750600160008054906101000a900460ff1660ff16105b80610a8e5750610a703061121c565b158015610a8d5750600160008054906101000a900460ff1660ff16145b5b610acd576040517f08c379a0000000000000000000000000000000000000000000000000000000008152600401610ac490611871565b60405180910390fd5b60016000806101000a81548160ff021916908360ff1602179055508015610b0a576001600060016101000a81548160ff0219169083151502179055505b610b1261123f565b8015610b6b5760008060016101000a81548160ff0219169083151502179055507f7f26b83ff96e1f2b6a682f133852f6798a09c465da95921460cefb38474024986001604051610b6291906118e3565b60405180910390a15b50565b6000603360009054906101000a900473ffffffffffffffffffffffffffffffffffffffff16905090565b606d6020528060005260406000206000915090505481565b606b5481565b600080606b5411905090565b606760009054906101000a900473ffffffffffffffffffffffffffffffffffffffff1681565b6000606660009054906101000a900473ffffffffffffffffffffffffffffffffffffffff1673ffffffffffffffffffffffffffffffffffffffff16636352211e836040518263ffffffff1660e01b8152600401610c459190611378565b602060405180830381865afa158015610c62573d6000803e3d6000fd5b505050506040513d601f19601f82011682018060405250810190610c869190611913565b90508073ffffffffffffffffffffffffffffffffffffffff163373ffffffffffffffffffffffffffffffffffffffff1614610cf6576040517f08c379a0000000000000000000000000000000000000000000000000000000008152600401610ced9061198c565b60405180910390fd5b6000606d6000848152602001908152602001600020549050606a548110610d52576040517f08c379a0000000000000000000000000000000000000000000000000000000008152600401610d49906119f8565b60405180910390fd5b6000610d5d846107b8565b50509050606a54606d6000868152602001908152602001600020819055506000811115610e2657606760009054906101000a900473ffffffffffffffffffffffffffffffffffffffff1673ffffffffffffffffffffffffffffffffffffffff1663a9059cbb33836040518363ffffffff1660e01b8152600401610de1929190611a18565b6020604051808303816000875af1158015610e00573d6000803e3d6000fd5b505050506040513d601f19601f82011682018060405250810190610e249190611a6d565b505b8273ffffffffffffffffffffffffffffffffffffffff16847fbafae844b508726cfec4bcf9d26964f9dcab95e9a52157cee956e19c0df86e2b4285606a5486604051610e759493929190611a9a565b60405180910390a350505050565b606c5481565b606a5481565b606860009054906101000a900473ffffffffffffffffffffffffffffffffffffffff1673ffffffffffffffffffffffffffffffffffffffff163373ffffffffffffffffffffffffffffffffffffffff1614610ee957600080fd5b610ef1610bb6565b610efa57600080fd5b6000819050600080606c541115610f2957600283610f189190611786565b90508083610f269190611655565b91505b6000606b54670de0b6b3a764000084610f429190611715565b610f4c9190611786565b90506000606c54670de0b6b3a764000084610f679190611715565b610f719190611786565b90506001606a54610f829190611689565b606a8190555060696040518060c00160405280878152602001606b548152602001848152602001606c548152602001838152602001428152509080600181540180825580915050600190039060005260206000209060060201600090919091909150600082015181600001556020820151816001015560408201518160020155606082015181600301556080820151816004015560a0820151816005015550505050505050565b6110316110d8565b600073ffffffffffffffffffffffffffffffffffffffff168173ffffffffffffffffffffffffffffffffffffffff16036110a0576040517f08c379a000000000000000000000000000000000000000000000000000000000815260040161109790611b51565b60405180910390fd5b6110a981611156565b50565b606860009054906101000a900473ffffffffffffffffffffffffffffffffffffffff1681565b60655481565b6110e0611298565b73ffffffffffffffffffffffffffffffffffffffff166110fe610b6e565b73ffffffffffffffffffffffffffffffffffffffff1614611154576040517f08c379a000000000000000000000000000000000000000000000000000000000815260040161114b90611bbd565b60405180910390fd5b565b6000603360009054906101000a900473ffffffffffffffffffffffffffffffffffffffff16905081603360006101000a81548173ffffffffffffffffffffffffffffffffffffffff021916908373ffffffffffffffffffffffffffffffffffffffff1602179055508173ffffffffffffffffffffffffffffffffffffffff168173ffffffffffffffffffffffffffffffffffffffff167f8be0079c531659141344cd1fd0a4f28419497f9722a3daafe3b4186f6b6457e060405160405180910390a35050565b6000808273ffffffffffffffffffffffffffffffffffffffff163b119050919050565b600060019054906101000a900460ff1661128e576040517f08c379a000000000000000000000000000000000000000000000000000000000815260040161128590611c4f565b60405180910390fd5b6112966112a0565b565b600033905090565b600060019054906101000a900460ff166112ef576040517f08c379a00000000000000000000000000000000000000000000000000000000081526004016112e690611c4f565b60405180910390fd5b6112ff6112fa611298565b611156565b565b600080fd5b6000819050919050565b61131981611306565b811461132457600080fd5b50565b60008135905061133681611310565b92915050565b60006020828403121561135257611351611301565b5b600061136084828501611327565b91505092915050565b61137281611306565b82525050565b600060208201905061138d6000830184611369565b92915050565b600080604083850312156113aa576113a9611301565b5b60006113b885828601611327565b92505060206113c985828601611327565b9150509250929050565b600060c0820190506113e86000830189611369565b6113f56020830188611369565b6114026040830187611369565b61140f6060830186611369565b61141c6080830185611369565b61142960a0830184611369565b979650505050505050565b60006060820190506114496000830186611369565b6114566020830185611369565b6114636040830184611369565b949350505050565b600073ffffffffffffffffffffffffffffffffffffffff82169050919050565b60006114968261146b565b9050919050565b6114a68161148b565b82525050565b60006020820190506114c1600083018461149d565b92915050565b6114d08161148b565b81146114db57600080fd5b50565b6000813590506114ed816114c7565b92915050565b60008060006060848603121561150c5761150b611301565b5b600061151a868287016114de565b935050602061152b868287016114de565b925050604061153c868287016114de565b9150509250925092565b60008115159050919050565b61155b81611546565b82525050565b60006020820190506115766000830184611552565b92915050565b60006020828403121561159257611591611301565b5b60006115a0848285016114de565b91505092915050565b600082825260208201905092915050565b7f686176652072657761726420756e636c61696d65640000000000000000000000600082015250565b60006115f06015836115a9565b91506115fb826115ba565b602082019050919050565b6000602082019050818103600083015261161f816115e3565b9050919050565b7f4e487b7100000000000000000000000000000000000000000000000000000000600052601160045260246000fd5b600061166082611306565b915061166b83611306565b925082820390508181111561168357611682611626565b5b92915050565b600061169482611306565b915061169f83611306565b92508282019050808211156116b7576116b6611626565b5b92915050565b60006040820190506116d26000830185611369565b6116df6020830184611369565b9392505050565b7f4e487b7100000000000000000000000000000000000000000000000000000000600052603260045260246000fd5b600061172082611306565b915061172b83611306565b925082820261173981611306565b915082820484148315176117505761174f611626565b5b5092915050565b7f4e487b7100000000000000000000000000000000000000000000000000000000600052601260045260246000fd5b600061179182611306565b915061179c83611306565b9250826117ac576117ab611757565b5b828204905092915050565b60006117c282611306565b91507fffffffffffffffffffffffffffffffffffffffffffffffffffffffffffffffff82036117f4576117f3611626565b5b600182019050919050565b7f496e697469616c697a61626c653a20636f6e747261637420697320616c72656160008201527f647920696e697469616c697a6564000000000000000000000000000000000000602082015250565b600061185b602e836115a9565b9150611866826117ff565b604082019050919050565b6000602082019050818103600083015261188a8161184e565b9050919050565b6000819050919050565b600060ff82169050919050565b6000819050919050565b60006118cd6118c86118c384611891565b6118a8565b61189b565b9050919050565b6118dd816118b2565b82525050565b60006020820190506118f860008301846118d4565b92915050565b60008151905061190d816114c7565b92915050565b60006020828403121561192957611928611301565b5b6000611937848285016118fe565b91505092915050565b7f6e6f74206f776e65720000000000000000000000000000000000000000000000600082015250565b60006119766009836115a9565b915061198182611940565b602082019050919050565b600060208201905081810360008301526119a581611969565b9050919050565b7f72657761726420616c726561647920636c61696d656400000000000000000000600082015250565b60006119e26016836115a9565b91506119ed826119ac565b602082019050919050565b60006020820190508181036000830152611a11816119d5565b9050919050565b6000604082019050611a2d600083018561149d565b611a3a6020830184611369565b9392505050565b611a4a81611546565b8114611a5557600080fd5b50565b600081519050611a6781611a41565b92915050565b600060208284031215611a8357611a82611301565b5b6000611a9184828501611a58565b91505092915050565b6000608082019050611aaf6000830187611369565b611abc6020830186611369565b611ac96040830185611369565b611ad66060830184611369565b95945050505050565b7f4f776e61626c653a206e6577206f776e657220697320746865207a65726f206160008201527f6464726573730000000000000000000000000000000000000000000000000000602082015250565b6000611b3b6026836115a9565b9150611b4682611adf565b604082019050919050565b60006020820190508181036000830152611b6a81611b2e565b9050919050565b7f4f776e61626c653a2063616c6c6572206973206e6f7420746865206f776e6572600082015250565b6000611ba76020836115a9565b9150611bb282611b71565b602082019050919050565b60006020820190508181036000830152611bd681611b9a565b9050919050565b7f496e697469616c697a61626c653a20636f6e7472616374206973206e6f74206960008201527f6e697469616c697a696e67000000000000000000000000000000000000000000602082015250565b6000611c39602b836115a9565b9150611c4482611bdd565b604082019050919050565b60006020820190508181036000830152611c6881611c2c565b905091905056fea2646970667358221220dcb4ac8e00f65dd5d4fe39ed6a935c3ba74b64df0e38cb47a4a0c3899038b6c264736f6c63430008120033",
  "linkReferences": {},
  "deployedLinkReferences": {}
}