{
  "_format": "hh-sol-artifact-1",
  "contractName": "BankV3",
  "sourceName": "contracts/BankV3.sol",
  "abi": [
    {
      "inputs": [],
      "stateMutability": "nonpayable",
      "type": "constructor"
    },
    {
      "anonymous": false,
      "inputs": [
        {
          "indexed": false,
          "internalType": "uint8",
          "name": "version",
          "type": "uint8"
        }
      ],
      "name": "Initialized",
      "type": "event"
    },
    {
      "anonymous": false,
      "inputs": [
        {
          "indexed": true,
          "internalType": "address",
          "name": "previousOwner",
          "type": "address"
        },
        {
          "indexed": true,
          "internalType": "address",
          "name": "newOwner",
          "type": "address"
        }
      ],
      "name": "OwnershipTransferred",
      "type": "event"
    },
    {
      "inputs": [],
      "name": "ADDRESS_COIN",
      "outputs": [
        {
          "internalType": "address",
          "name": "",
          "type": "address"
        }
      ],
      "stateMutability": "view",
      "type": "function"
    },
    {
      "inputs": [],
      "name": "ADDRESS_POOL",
      "outputs": [
        {
          "internalType": "address",
          "name": "",
          "type": "address"
        }
      ],
      "stateMutability": "view",
      "type": "function"
    },
    {
      "inputs": [],
      "name": "ADDRESS_TOKEN",
      "outputs": [
        {
          "internalType": "address",
          "name": "",
          "type": "address"
        }
      ],
      "stateMutability": "view",
      "type": "function"
    },
    {
      "inputs": [],
      "name": "VERSION",
      "outputs": [
        {
          "internalType": "uint256",
          "name": "",
          "type": "uint256"
        }
      ],
      "stateMutability": "view",
      "type": "function"
    },
    {
      "inputs": [
        {
          "internalType": "uint256",
          "name": "amountCoin",
          "type": "uint256"
        }
      ],
      "name": "coinToToken",
      "outputs": [
        {
          "internalType": "uint256",
          "name": "",
          "type": "uint256"
        }
      ],
      "stateMutability": "view",
      "type": "function"
    },
    {
      "inputs": [],
      "name": "getBasePrice",
      "outputs": [
        {
          "internalType": "uint256",
          "name": "",
          "type": "uint256"
        }
      ],
      "stateMutability": "view",
      "type": "function"
    },
    {
      "inputs": [],
      "name": "initialize",
      "outputs": [],
      "stateMutability": "nonpayable",
      "type": "function"
    },
    {
      "inputs": [],
      "name": "owner",
      "outputs": [
        {
          "internalType": "address",
          "name": "",
          "type": "address"
        }
      ],
      "stateMutability": "view",
      "type": "function"
    },
    {
      "inputs": [],
      "name": "renounceOwnership",
      "outputs": [],
      "stateMutability": "nonpayable",
      "type": "function"
    },
    {
      "inputs": [
        {
          "internalType": "uint256",
          "name": "amountCoin",
          "type": "uint256"
        },
        {
          "internalType": "uint256",
          "name": "amountToken",
          "type": "uint256"
        },
        {
          "internalType": "address",
          "name": "addrC",
          "type": "address"
        },
        {
          "internalType": "address",
          "name": "addrT",
          "type": "address"
        },
        {
          "internalType": "address",
          "name": "addrP",
          "type": "address"
        }
      ],
      "name": "setup",
      "outputs": [],
      "stateMutability": "payable",
      "type": "function"
    },
    {
      "inputs": [
        {
          "internalType": "uint256",
          "name": "amountCoin",
          "type": "uint256"
        },
        {
          "internalType": "address",
          "name": "receiver",
          "type": "address"
        }
      ],
      "name": "swapCoinToToken",
      "outputs": [
        {
          "internalType": "uint256",
          "name": "",
          "type": "uint256"
        }
      ],
      "stateMutability": "nonpayable",
      "type": "function"
    },
    {
      "inputs": [
        {
          "internalType": "uint256",
          "name": "amountToken",
          "type": "uint256"
        },
        {
          "internalType": "address",
          "name": "receiver",
          "type": "address"
        }
      ],
      "name": "swapTokenToCoin",
      "outputs": [
        {
          "internalType": "uint256",
          "name": "",
          "type": "uint256"
        }
      ],
      "stateMutability": "nonpayable",
      "type": "function"
    },
    {
      "inputs": [
        {
          "internalType": "uint256",
          "name": "amountToken",
          "type": "uint256"
        }
      ],
      "name": "tokenToCoin",
      "outputs": [
        {
          "internalType": "uint256",
          "name": "",
          "type": "uint256"
        }
      ],
      "stateMutability": "view",
      "type": "function"
    },
    {
      "inputs": [
        {
          "internalType": "address",
          "name": "newOwner",
          "type": "address"
        }
      ],
      "name": "transferOwnership",
      "outputs": [],
      "stateMutability": "nonpayable",
      "type": "function"
    },
    {
      "inputs": [
        {
          "internalType": "uint256",
          "name": "amountToken",
          "type": "uint256"
        },
        {
          "internalType": "address",
          "name": "receiver",
          "type": "address"
        }
      ],
      "name": "unlockReward",
      "outputs": [
        {
          "internalType": "uint256",
          "name": "",
          "type": "uint256"
        }
      ],
      "stateMutability": "nonpayable",
      "type": "function"
    }
  ],
  "bytecode": "0x60806040523480156200001157600080fd5b50620000226200002860201b60201c565b620001d3565b600060019054906101000a900460ff16156200007b576040517f08c379a0000000000000000000000000000000000000000000000000000000008152600401620000729062000176565b60405180910390fd5b60ff801660008054906101000a900460ff1660ff161015620000ed5760ff6000806101000a81548160ff021916908360ff1602179055507f7f26b83ff96e1f2b6a682f133852f6798a09c465da95921460cefb384740249860ff604051620000e49190620001b6565b60405180910390a15b565b600082825260208201905092915050565b7f496e697469616c697a61626c653a20636f6e747261637420697320696e69746960008201527f616c697a696e6700000000000000000000000000000000000000000000000000602082015250565b60006200015e602783620000ef565b91506200016b8262000100565b604082019050919050565b6000602082019050818103600083015262000191816200014f565b9050919050565b600060ff82169050919050565b620001b08162000198565b82525050565b6000602082019050620001cd6000830184620001a5565b92915050565b6117e480620001e36000396000f3fe6080604052600436106100e85760003560e01c8063b9cfe2a81161008a578063f2fde38b11610059578063f2fde38b146102d7578063fb11fe1614610300578063ffa1ad741461032b578063ffb283f814610356576100e8565b8063b9cfe2a814610216578063c44316c614610241578063e0c8040a1461027e578063ed23f9d9146102bb576100e8565b80638129fc1c116100c65780638129fc1c1461016c5780638da5cb5b14610183578063a3e0c306146101ae578063b49f4afd146101eb576100e8565b8063165310c5146100ed57806332b6989714610118578063715018a614610155575b600080fd5b3480156100f957600080fd5b50610102610393565b60405161010f9190611141565b60405180910390f35b34801561012457600080fd5b5061013f600480360381019061013a91906111c3565b6103b9565b60405161014c9190611212565b60405180910390f35b34801561016157600080fd5b5061016a610522565b005b34801561017857600080fd5b50610181610536565b005b34801561018f57600080fd5b50610198610674565b6040516101a59190611141565b60405180910390f35b3480156101ba57600080fd5b506101d560048036038101906101d0919061122d565b61069e565b6040516101e29190611212565b60405180910390f35b3480156101f757600080fd5b506102006106f8565b60405161020d9190611212565b60405180910390f35b34801561022257600080fd5b5061022b61090c565b6040516102389190611141565b60405180910390f35b34801561024d57600080fd5b50610268600480360381019061026391906111c3565b610932565b6040516102759190611212565b60405180910390f35b34801561028a57600080fd5b506102a560048036038101906102a0919061122d565b610a38565b6040516102b29190611212565b60405180910390f35b6102d560048036038101906102d0919061125a565b610a92565b005b3480156102e357600080fd5b506102fe60048036038101906102f991906112d5565b610cbf565b005b34801561030c57600080fd5b50610315610d42565b6040516103229190611141565b60405180910390f35b34801561033757600080fd5b50610340610d68565b60405161034d9190611212565b60405180910390f35b34801561036257600080fd5b5061037d600480360381019061037891906111c3565b610d6e565b60405161038a9190611212565b60405180910390f35b606760009054906101000a900473ffffffffffffffffffffffffffffffffffffffff1681565b60008083116103c757600080fd5b60006103d28461069e565b9050606660009054906101000a900473ffffffffffffffffffffffffffffffffffffffff1673ffffffffffffffffffffffffffffffffffffffff166323b872dd3330876040518463ffffffff1660e01b815260040161043393929190611302565b6020604051808303816000875af1158015610452573d6000803e3d6000fd5b505050506040513d601f19601f820116820180604052508101906104769190611371565b50606760009054906101000a900473ffffffffffffffffffffffffffffffffffffffff1673ffffffffffffffffffffffffffffffffffffffff1663a9059cbb84836040518363ffffffff1660e01b81526004016104d492919061139e565b6020604051808303816000875af11580156104f3573d6000803e3d6000fd5b505050506040513d601f19601f820116820180604052508101906105179190611371565b508091505092915050565b61052a610ed7565b6105346000610f55565b565b60008060019054906101000a900460ff161590508080156105675750600160008054906101000a900460ff1660ff16105b8061059457506105763061101b565b1580156105935750600160008054906101000a900460ff1660ff16145b5b6105d3576040517f08c379a00000000000000000000000000000000000000000000000000000000081526004016105ca9061144a565b60405180910390fd5b60016000806101000a81548160ff021916908360ff1602179055508015610610576001600060016101000a81548160ff0219169083151502179055505b61061861103e565b80156106715760008060016101000a81548160ff0219169083151502179055507f7f26b83ff96e1f2b6a682f133852f6798a09c465da95921460cefb3847402498600160405161066891906114bc565b60405180910390a15b50565b6000603360009054906101000a900473ffffffffffffffffffffffffffffffffffffffff16905090565b6000806103e3905060006103e8826106b46106f8565b6106be9190611506565b6106c89190611577565b90506000670de0b6b3a764000082866106e19190611506565b6106eb9190611577565b9050809350505050919050565b600080606660009054906101000a900473ffffffffffffffffffffffffffffffffffffffff1673ffffffffffffffffffffffffffffffffffffffff166318160ddd6040518163ffffffff1660e01b8152600401602060405180830381865afa158015610768573d6000803e3d6000fd5b505050506040513d601f19601f8201168201806040525081019061078c91906115bd565b90506000606660009054906101000a900473ffffffffffffffffffffffffffffffffffffffff1673ffffffffffffffffffffffffffffffffffffffff166370a08231306040518263ffffffff1660e01b81526004016107eb9190611141565b602060405180830381865afa158015610808573d6000803e3d6000fd5b505050506040513d601f19601f8201168201806040525081019061082c91906115bd565b90506000818361083c91906115ea565b90506000606760009054906101000a900473ffffffffffffffffffffffffffffffffffffffff1673ffffffffffffffffffffffffffffffffffffffff166370a08231306040518263ffffffff1660e01b815260040161089b9190611141565b602060405180830381865afa1580156108b8573d6000803e3d6000fd5b505050506040513d601f19601f820116820180604052508101906108dc91906115bd565b9050600082670de0b6b3a7640000836108f59190611506565b6108ff9190611577565b9050809550505050505090565b606660009054906101000a900473ffffffffffffffffffffffffffffffffffffffff1681565b6000606860009054906101000a900473ffffffffffffffffffffffffffffffffffffffff1673ffffffffffffffffffffffffffffffffffffffff163373ffffffffffffffffffffffffffffffffffffffff161461098e57600080fd5b606660009054906101000a900473ffffffffffffffffffffffffffffffffffffffff1673ffffffffffffffffffffffffffffffffffffffff1663a9059cbb83856040518363ffffffff1660e01b81526004016109eb92919061139e565b6020604051808303816000875af1158015610a0a573d6000803e3d6000fd5b505050506040513d601f19601f82011682018060405250810190610a2e9190611371565b5082905092915050565b6000806103ed905060006103e882610a4e6106f8565b610a589190611506565b610a629190611577565b9050600081670de0b6b3a764000086610a7b9190611506565b610a859190611577565b9050809350505050919050565b610a9a610ed7565b600060655414610aa957600080fd5b600160658190555082606760006101000a81548173ffffffffffffffffffffffffffffffffffffffff021916908373ffffffffffffffffffffffffffffffffffffffff16021790555081606660006101000a81548173ffffffffffffffffffffffffffffffffffffffff021916908373ffffffffffffffffffffffffffffffffffffffff16021790555080606860006101000a81548173ffffffffffffffffffffffffffffffffffffffff021916908373ffffffffffffffffffffffffffffffffffffffff160217905550606760009054906101000a900473ffffffffffffffffffffffffffffffffffffffff1673ffffffffffffffffffffffffffffffffffffffff166323b872dd3330886040518463ffffffff1660e01b8152600401610bd393929190611302565b6020604051808303816000875af1158015610bf2573d6000803e3d6000fd5b505050506040513d601f19601f82011682018060405250810190610c169190611371565b50606660009054906101000a900473ffffffffffffffffffffffffffffffffffffffff1673ffffffffffffffffffffffffffffffffffffffff1663a9059cbb33866040518363ffffffff1660e01b8152600401610c7492919061139e565b6020604051808303816000875af1158015610c93573d6000803e3d6000fd5b505050506040513d601f19601f82011682018060405250810190610cb79190611371565b505050505050565b610cc7610ed7565b600073ffffffffffffffffffffffffffffffffffffffff168173ffffffffffffffffffffffffffffffffffffffff1603610d36576040517f08c379a0000000000000000000000000000000000000000000000000000000008152600401610d2d90611690565b60405180910390fd5b610d3f81610f55565b50565b606860009054906101000a900473ffffffffffffffffffffffffffffffffffffffff1681565b60655481565b6000808311610d7c57600080fd5b6000610d8784610a38565b9050606760009054906101000a900473ffffffffffffffffffffffffffffffffffffffff1673ffffffffffffffffffffffffffffffffffffffff166323b872dd3330876040518463ffffffff1660e01b8152600401610de893929190611302565b6020604051808303816000875af1158015610e07573d6000803e3d6000fd5b505050506040513d601f19601f82011682018060405250810190610e2b9190611371565b50606660009054906101000a900473ffffffffffffffffffffffffffffffffffffffff1673ffffffffffffffffffffffffffffffffffffffff1663a9059cbb84836040518363ffffffff1660e01b8152600401610e8992919061139e565b6020604051808303816000875af1158015610ea8573d6000803e3d6000fd5b505050506040513d601f19601f82011682018060405250810190610ecc9190611371565b508091505092915050565b610edf611097565b73ffffffffffffffffffffffffffffffffffffffff16610efd610674565b73ffffffffffffffffffffffffffffffffffffffff1614610f53576040517f08c379a0000000000000000000000000000000000000000000000000000000008152600401610f4a906116fc565b60405180910390fd5b565b6000603360009054906101000a900473ffffffffffffffffffffffffffffffffffffffff16905081603360006101000a81548173ffffffffffffffffffffffffffffffffffffffff021916908373ffffffffffffffffffffffffffffffffffffffff1602179055508173ffffffffffffffffffffffffffffffffffffffff168173ffffffffffffffffffffffffffffffffffffffff167f8be0079c531659141344cd1fd0a4f28419497f9722a3daafe3b4186f6b6457e060405160405180910390a35050565b6000808273ffffffffffffffffffffffffffffffffffffffff163b119050919050565b600060019054906101000a900460ff1661108d576040517f08c379a00000000000000000000000000000000000000000000000000000000081526004016110849061178e565b60405180910390fd5b61109561109f565b565b600033905090565b600060019054906101000a900460ff166110ee576040517f08c379a00000000000000000000000000000000000000000000000000000000081526004016110e59061178e565b60405180910390fd5b6110fe6110f9611097565b610f55565b565b600073ffffffffffffffffffffffffffffffffffffffff82169050919050565b600061112b82611100565b9050919050565b61113b81611120565b82525050565b60006020820190506111566000830184611132565b92915050565b600080fd5b6000819050919050565b61117481611161565b811461117f57600080fd5b50565b6000813590506111918161116b565b92915050565b6111a081611120565b81146111ab57600080fd5b50565b6000813590506111bd81611197565b92915050565b600080604083850312156111da576111d961115c565b5b60006111e885828601611182565b92505060206111f9858286016111ae565b9150509250929050565b61120c81611161565b82525050565b60006020820190506112276000830184611203565b92915050565b6000602082840312156112435761124261115c565b5b600061125184828501611182565b91505092915050565b600080600080600060a086880312156112765761127561115c565b5b600061128488828901611182565b955050602061129588828901611182565b94505060406112a6888289016111ae565b93505060606112b7888289016111ae565b92505060806112c8888289016111ae565b9150509295509295909350565b6000602082840312156112eb576112ea61115c565b5b60006112f9848285016111ae565b91505092915050565b60006060820190506113176000830186611132565b6113246020830185611132565b6113316040830184611203565b949350505050565b60008115159050919050565b61134e81611339565b811461135957600080fd5b50565b60008151905061136b81611345565b92915050565b6000602082840312156113875761138661115c565b5b60006113958482850161135c565b91505092915050565b60006040820190506113b36000830185611132565b6113c06020830184611203565b9392505050565b600082825260208201905092915050565b7f496e697469616c697a61626c653a20636f6e747261637420697320616c72656160008201527f647920696e697469616c697a6564000000000000000000000000000000000000602082015250565b6000611434602e836113c7565b915061143f826113d8565b604082019050919050565b6000602082019050818103600083015261146381611427565b9050919050565b6000819050919050565b600060ff82169050919050565b6000819050919050565b60006114a66114a161149c8461146a565b611481565b611474565b9050919050565b6114b68161148b565b82525050565b60006020820190506114d160008301846114ad565b92915050565b7f4e487b7100000000000000000000000000000000000000000000000000000000600052601160045260246000fd5b600061151182611161565b915061151c83611161565b925082820261152a81611161565b91508282048414831517611541576115406114d7565b5b5092915050565b7f4e487b7100000000000000000000000000000000000000000000000000000000600052601260045260246000fd5b600061158282611161565b915061158d83611161565b92508261159d5761159c611548565b5b828204905092915050565b6000815190506115b78161116b565b92915050565b6000602082840312156115d3576115d261115c565b5b60006115e1848285016115a8565b91505092915050565b60006115f582611161565b915061160083611161565b9250828203905081811115611618576116176114d7565b5b92915050565b7f4f776e61626c653a206e6577206f776e657220697320746865207a65726f206160008201527f6464726573730000000000000000000000000000000000000000000000000000602082015250565b600061167a6026836113c7565b91506116858261161e565b604082019050919050565b600060208201905081810360008301526116a98161166d565b9050919050565b7f4f776e61626c653a2063616c6c6572206973206e6f7420746865206f776e6572600082015250565b60006116e66020836113c7565b91506116f1826116b0565b602082019050919050565b60006020820190508181036000830152611715816116d9565b9050919050565b7f496e697469616c697a61626c653a20636f6e7472616374206973206e6f74206960008201527f6e697469616c697a696e67000000000000000000000000000000000000000000602082015250565b6000611778602b836113c7565b91506117838261171c565b604082019050919050565b600060208201905081810360008301526117a78161176b565b905091905056fea2646970667358221220abef80e2cb5149a2a28cd0e999d07fd41445c771fd561caf4932163ac7757efd64736f6c63430008120033",
  "linkReferences": {},
  "deployedLinkReferences": {}
}