{
  "_format": "hh-sol-artifact-1",
  "contractName": "GuardV3",
  "sourceName": "contracts/GuardV3.sol",
  "abi": [
    {
      "inputs": [],
      "stateMutability": "nonpayable",
      "type": "constructor"
    },
    {
      "anonymous": false,
      "inputs": [
        {
          "indexed": false,
          "internalType": "uint256",
          "name": "ts",
          "type": "uint256"
        },
        {
          "indexed": true,
          "internalType": "bool",
          "name": "buySwapSellBank",
          "type": "bool"
        },
        {
          "indexed": false,
          "internalType": "uint256",
          "name": "amountStart",
          "type": "uint256"
        },
        {
          "indexed": false,
          "internalType": "uint256",
          "name": "amountToken",
          "type": "uint256"
        },
        {
          "indexed": false,
          "internalType": "uint256",
          "name": "amountEnd",
          "type": "uint256"
        }
      ],
      "name": "Arbitrage",
      "type": "event"
    },
    {
      "anonymous": false,
      "inputs": [
        {
          "indexed": false,
          "internalType": "uint8",
          "name": "version",
          "type": "uint8"
        }
      ],
      "name": "Initialized",
      "type": "event"
    },
    {
      "anonymous": false,
      "inputs": [
        {
          "indexed": true,
          "internalType": "address",
          "name": "previousOwner",
          "type": "address"
        },
        {
          "indexed": true,
          "internalType": "address",
          "name": "newOwner",
          "type": "address"
        }
      ],
      "name": "OwnershipTransferred",
      "type": "event"
    },
    {
      "inputs": [],
      "name": "ADDRESS_BANK",
      "outputs": [
        {
          "internalType": "address",
          "name": "",
          "type": "address"
        }
      ],
      "stateMutability": "view",
      "type": "function"
    },
    {
      "inputs": [],
      "name": "ADDRESS_COIN",
      "outputs": [
        {
          "internalType": "address",
          "name": "",
          "type": "address"
        }
      ],
      "stateMutability": "view",
      "type": "function"
    },
    {
      "inputs": [],
      "name": "ADDRESS_ROUTER",
      "outputs": [
        {
          "internalType": "address",
          "name": "",
          "type": "address"
        }
      ],
      "stateMutability": "view",
      "type": "function"
    },
    {
      "inputs": [],
      "name": "ADDRESS_TOKEN",
      "outputs": [
        {
          "internalType": "address",
          "name": "",
          "type": "address"
        }
      ],
      "stateMutability": "view",
      "type": "function"
    },
    {
      "inputs": [],
      "name": "MAX_INT",
      "outputs": [
        {
          "internalType": "uint256",
          "name": "",
          "type": "uint256"
        }
      ],
      "stateMutability": "view",
      "type": "function"
    },
    {
      "inputs": [],
      "name": "VERSION",
      "outputs": [
        {
          "internalType": "uint256",
          "name": "",
          "type": "uint256"
        }
      ],
      "stateMutability": "view",
      "type": "function"
    },
    {
      "inputs": [
        {
          "internalType": "uint256",
          "name": "amountStart",
          "type": "uint256"
        }
      ],
      "name": "buyBankSellSwap",
      "outputs": [
        {
          "internalType": "uint256",
          "name": "",
          "type": "uint256"
        }
      ],
      "stateMutability": "nonpayable",
      "type": "function"
    },
    {
      "inputs": [
        {
          "internalType": "uint256",
          "name": "amountStart",
          "type": "uint256"
        }
      ],
      "name": "buySwapSellBank",
      "outputs": [
        {
          "internalType": "uint256",
          "name": "",
          "type": "uint256"
        }
      ],
      "stateMutability": "nonpayable",
      "type": "function"
    },
    {
      "inputs": [],
      "name": "initialize",
      "outputs": [],
      "stateMutability": "nonpayable",
      "type": "function"
    },
    {
      "inputs": [],
      "name": "owner",
      "outputs": [
        {
          "internalType": "address",
          "name": "",
          "type": "address"
        }
      ],
      "stateMutability": "view",
      "type": "function"
    },
    {
      "inputs": [],
      "name": "renounceOwnership",
      "outputs": [],
      "stateMutability": "nonpayable",
      "type": "function"
    },
    {
      "inputs": [
        {
          "internalType": "address",
          "name": "addrRouter",
          "type": "address"
        },
        {
          "internalType": "address",
          "name": "addrCoin",
          "type": "address"
        },
        {
          "internalType": "address",
          "name": "addrToken",
          "type": "address"
        },
        {
          "internalType": "address",
          "name": "addrBank",
          "type": "address"
        }
      ],
      "name": "setup",
      "outputs": [],
      "stateMutability": "nonpayable",
      "type": "function"
    },
    {
      "inputs": [
        {
          "internalType": "address",
          "name": "newOwner",
          "type": "address"
        }
      ],
      "name": "transferOwnership",
      "outputs": [],
      "stateMutability": "nonpayable",
      "type": "function"
    }
  ],
  "bytecode": "0x60806040523480156200001157600080fd5b50620000226200002860201b60201c565b620001d3565b600060019054906101000a900460ff16156200007b576040517f08c379a0000000000000000000000000000000000000000000000000000000008152600401620000729062000176565b60405180910390fd5b60ff801660008054906101000a900460ff1660ff161015620000ed5760ff6000806101000a81548160ff021916908360ff1602179055507f7f26b83ff96e1f2b6a682f133852f6798a09c465da95921460cefb384740249860ff604051620000e49190620001b6565b60405180910390a15b565b600082825260208201905092915050565b7f496e697469616c697a61626c653a20636f6e747261637420697320696e69746960008201527f616c697a696e6700000000000000000000000000000000000000000000000000602082015250565b60006200015e602783620000ef565b91506200016b8262000100565b604082019050919050565b6000602082019050818103600083015262000191816200014f565b9050919050565b600060ff82169050919050565b620001b08162000198565b82525050565b6000602082019050620001cd6000830184620001a5565b92915050565b61201580620001e36000396000f3fe608060405234801561001057600080fd5b50600436106100cf5760003560e01c80637bb5ea0d1161008c5780638da5cb5b116100665780638da5cb5b146101dc578063b9cfe2a8146101fa578063f2fde38b14610218578063ffa1ad7414610234576100cf565b80637bb5ea0d146101845780638129fc1c146101b45780638b117e43146101be576100cf565b8063098d3228146100d4578063165310c5146100f257806326fc3f5d1461011057806334cd865c1461012e57806354c35a3c1461015e578063715018a61461017a575b600080fd5b6100dc610252565b6040516100e991906116a9565b60405180910390f35b6100fa610258565b6040516101079190611705565b60405180910390f35b61011861027e565b6040516101259190611705565b60405180910390f35b61014860048036038101906101439190611760565b6102a4565b60405161015591906116a9565b60405180910390f35b610178600480360381019061017391906117b9565b6103c8565b005b610182610518565b005b61019e60048036038101906101999190611760565b61052c565b6040516101ab91906116a9565b60405180910390f35b6101bc610650565b005b6101c661078e565b6040516101d39190611705565b60405180910390f35b6101e46107b4565b6040516101f19190611705565b60405180910390f35b6102026107de565b60405161020f9190611705565b60405180910390f35b610232600480360381019061022d9190611820565b610804565b005b61023c610887565b60405161024991906116a9565b60405180910390f35b606a5481565b606660009054906101000a900473ffffffffffffffffffffffffffffffffffffffff1681565b606860009054906101000a900473ffffffffffffffffffffffffffffffffffffffff1681565b6000606660009054906101000a900473ffffffffffffffffffffffffffffffffffffffff1673ffffffffffffffffffffffffffffffffffffffff166323b872dd3330856040518463ffffffff1660e01b81526004016103059392919061184d565b6020604051808303816000875af1158015610324573d6000803e3d6000fd5b505050506040513d601f19601f8201168201806040525081019061034891906118bc565b5060006103548361088d565b9050600061036182610b56565b9050600084826103719190611918565b905061037c85610cc8565b600115157f80b811b12ac9e6fa890258f35f0a78baa31be2b475b0937fab280898f7033865428786866040516103b5949392919061194c565b60405180910390a2809350505050919050565b6103d061102c565b6000606554146103df57600080fd5b60016065819055507fffffffffffffffffffffffffffffffffffffffffffffffffffffffffffffffff606a8190555083606860006101000a81548173ffffffffffffffffffffffffffffffffffffffff021916908373ffffffffffffffffffffffffffffffffffffffff16021790555082606660006101000a81548173ffffffffffffffffffffffffffffffffffffffff021916908373ffffffffffffffffffffffffffffffffffffffff16021790555081606760006101000a81548173ffffffffffffffffffffffffffffffffffffffff021916908373ffffffffffffffffffffffffffffffffffffffff16021790555080606960006101000a81548173ffffffffffffffffffffffffffffffffffffffff021916908373ffffffffffffffffffffffffffffffffffffffff16021790555050505050565b61052061102c565b61052a60006110aa565b565b6000606660009054906101000a900473ffffffffffffffffffffffffffffffffffffffff1673ffffffffffffffffffffffffffffffffffffffff166323b872dd3330856040518463ffffffff1660e01b815260040161058d9392919061184d565b6020604051808303816000875af11580156105ac573d6000803e3d6000fd5b505050506040513d601f19601f820116820180604052508101906105d091906118bc565b5060006105dc83611170565b905060006105e9826112e2565b9050600084826105f99190611918565b905061060485610cc8565b600015157f80b811b12ac9e6fa890258f35f0a78baa31be2b475b0937fab280898f70338654287868660405161063d949392919061194c565b60405180910390a2809350505050919050565b60008060019054906101000a900460ff161590508080156106815750600160008054906101000a900460ff1660ff16105b806106ae5750610690306115ab565b1580156106ad5750600160008054906101000a900460ff1660ff16145b5b6106ed576040517f08c379a00000000000000000000000000000000000000000000000000000000081526004016106e490611a14565b60405180910390fd5b60016000806101000a81548160ff021916908360ff160217905550801561072a576001600060016101000a81548160ff0219169083151502179055505b6107326115ce565b801561078b5760008060016101000a81548160ff0219169083151502179055507f7f26b83ff96e1f2b6a682f133852f6798a09c465da95921460cefb384740249860016040516107829190611a86565b60405180910390a15b50565b606960009054906101000a900473ffffffffffffffffffffffffffffffffffffffff1681565b6000603360009054906101000a900473ffffffffffffffffffffffffffffffffffffffff16905090565b606760009054906101000a900473ffffffffffffffffffffffffffffffffffffffff1681565b61080c61102c565b600073ffffffffffffffffffffffffffffffffffffffff168173ffffffffffffffffffffffffffffffffffffffff160361087b576040517f08c379a000000000000000000000000000000000000000000000000000000000815260040161087290611b13565b60405180910390fd5b610884816110aa565b50565b60655481565b600080600267ffffffffffffffff8111156108ab576108aa611b33565b5b6040519080825280602002602001820160405280156108d95781602001602082028036833780820191505090505b509050606660009054906101000a900473ffffffffffffffffffffffffffffffffffffffff168160008151811061091357610912611b62565b5b602002602001019073ffffffffffffffffffffffffffffffffffffffff16908173ffffffffffffffffffffffffffffffffffffffff1681525050606760009054906101000a900473ffffffffffffffffffffffffffffffffffffffff168160018151811061098457610983611b62565b5b602002602001019073ffffffffffffffffffffffffffffffffffffffff16908173ffffffffffffffffffffffffffffffffffffffff1681525050606660009054906101000a900473ffffffffffffffffffffffffffffffffffffffff1673ffffffffffffffffffffffffffffffffffffffff1663095ea7b3606860009054906101000a900473ffffffffffffffffffffffffffffffffffffffff16856040518363ffffffff1660e01b8152600401610a3d929190611b91565b6020604051808303816000875af1158015610a5c573d6000803e3d6000fd5b505050506040513d601f19601f82011682018060405250810190610a8091906118bc565b506000606860009054906101000a900473ffffffffffffffffffffffffffffffffffffffff1673ffffffffffffffffffffffffffffffffffffffff166338ed17398560018530426040518663ffffffff1660e01b8152600401610ae7959493929190611ca9565b6000604051808303816000875af1158015610b06573d6000803e3d6000fd5b505050506040513d6000823e3d601f19601f82011682018060405250810190610b2f9190611e42565b905080600181518110610b4557610b44611b62565b5b602002602001015192505050919050565b6000606760009054906101000a900473ffffffffffffffffffffffffffffffffffffffff1673ffffffffffffffffffffffffffffffffffffffff1663095ea7b3606960009054906101000a900473ffffffffffffffffffffffffffffffffffffffff16846040518363ffffffff1660e01b8152600401610bd7929190611b91565b6020604051808303816000875af1158015610bf6573d6000803e3d6000fd5b505050506040513d601f19601f82011682018060405250810190610c1a91906118bc565b506000606960009054906101000a900473ffffffffffffffffffffffffffffffffffffffff1673ffffffffffffffffffffffffffffffffffffffff166332b6989784306040518363ffffffff1660e01b8152600401610c7a929190611e8b565b6020604051808303816000875af1158015610c99573d6000803e3d6000fd5b505050506040513d601f19601f82011682018060405250810190610cbd9190611eb4565b905080915050919050565b606660009054906101000a900473ffffffffffffffffffffffffffffffffffffffff1673ffffffffffffffffffffffffffffffffffffffff1663a9059cbb33836040518363ffffffff1660e01b8152600401610d25929190611b91565b6020604051808303816000875af1158015610d44573d6000803e3d6000fd5b505050506040513d601f19601f82011682018060405250810190610d6891906118bc565b506000606960009054906101000a900473ffffffffffffffffffffffffffffffffffffffff1690506000606660009054906101000a900473ffffffffffffffffffffffffffffffffffffffff1673ffffffffffffffffffffffffffffffffffffffff166370a08231306040518263ffffffff1660e01b8152600401610ded9190611705565b602060405180830381865afa158015610e0a573d6000803e3d6000fd5b505050506040513d601f19601f82011682018060405250810190610e2e9190611eb4565b90506000811115610edb57606660009054906101000a900473ffffffffffffffffffffffffffffffffffffffff1673ffffffffffffffffffffffffffffffffffffffff1663a9059cbb83836040518363ffffffff1660e01b8152600401610e96929190611b91565b6020604051808303816000875af1158015610eb5573d6000803e3d6000fd5b505050506040513d601f19601f82011682018060405250810190610ed991906118bc565b505b6000606760009054906101000a900473ffffffffffffffffffffffffffffffffffffffff1673ffffffffffffffffffffffffffffffffffffffff166370a08231306040518263ffffffff1660e01b8152600401610f389190611705565b602060405180830381865afa158015610f55573d6000803e3d6000fd5b505050506040513d601f19601f82011682018060405250810190610f799190611eb4565b9050600081111561102657606760009054906101000a900473ffffffffffffffffffffffffffffffffffffffff1673ffffffffffffffffffffffffffffffffffffffff1663a9059cbb84836040518363ffffffff1660e01b8152600401610fe1929190611b91565b6020604051808303816000875af1158015611000573d6000803e3d6000fd5b505050506040513d601f19601f8201168201806040525081019061102491906118bc565b505b50505050565b611034611627565b73ffffffffffffffffffffffffffffffffffffffff166110526107b4565b73ffffffffffffffffffffffffffffffffffffffff16146110a8576040517f08c379a000000000000000000000000000000000000000000000000000000000815260040161109f90611f2d565b60405180910390fd5b565b6000603360009054906101000a900473ffffffffffffffffffffffffffffffffffffffff16905081603360006101000a81548173ffffffffffffffffffffffffffffffffffffffff021916908373ffffffffffffffffffffffffffffffffffffffff1602179055508173ffffffffffffffffffffffffffffffffffffffff168173ffffffffffffffffffffffffffffffffffffffff167f8be0079c531659141344cd1fd0a4f28419497f9722a3daafe3b4186f6b6457e060405160405180910390a35050565b6000606660009054906101000a900473ffffffffffffffffffffffffffffffffffffffff1673ffffffffffffffffffffffffffffffffffffffff1663095ea7b3606960009054906101000a900473ffffffffffffffffffffffffffffffffffffffff16846040518363ffffffff1660e01b81526004016111f1929190611b91565b6020604051808303816000875af1158015611210573d6000803e3d6000fd5b505050506040513d601f19601f8201168201806040525081019061123491906118bc565b506000606960009054906101000a900473ffffffffffffffffffffffffffffffffffffffff1673ffffffffffffffffffffffffffffffffffffffff1663ffb283f884306040518363ffffffff1660e01b8152600401611294929190611e8b565b6020604051808303816000875af11580156112b3573d6000803e3d6000fd5b505050506040513d601f19601f820116820180604052508101906112d79190611eb4565b905080915050919050565b600080600267ffffffffffffffff811115611300576112ff611b33565b5b60405190808252806020026020018201604052801561132e5781602001602082028036833780820191505090505b509050606760009054906101000a900473ffffffffffffffffffffffffffffffffffffffff168160008151811061136857611367611b62565b5b602002602001019073ffffffffffffffffffffffffffffffffffffffff16908173ffffffffffffffffffffffffffffffffffffffff1681525050606660009054906101000a900473ffffffffffffffffffffffffffffffffffffffff16816001815181106113d9576113d8611b62565b5b602002602001019073ffffffffffffffffffffffffffffffffffffffff16908173ffffffffffffffffffffffffffffffffffffffff1681525050606760009054906101000a900473ffffffffffffffffffffffffffffffffffffffff1673ffffffffffffffffffffffffffffffffffffffff1663095ea7b3606860009054906101000a900473ffffffffffffffffffffffffffffffffffffffff16856040518363ffffffff1660e01b8152600401611492929190611b91565b6020604051808303816000875af11580156114b1573d6000803e3d6000fd5b505050506040513d601f19601f820116820180604052508101906114d591906118bc565b506000606860009054906101000a900473ffffffffffffffffffffffffffffffffffffffff1673ffffffffffffffffffffffffffffffffffffffff166338ed17398560018530426040518663ffffffff1660e01b815260040161153c959493929190611ca9565b6000604051808303816000875af115801561155b573d6000803e3d6000fd5b505050506040513d6000823e3d601f19601f820116820180604052508101906115849190611e42565b90508060018151811061159a57611599611b62565b5b602002602001015192505050919050565b6000808273ffffffffffffffffffffffffffffffffffffffff163b119050919050565b600060019054906101000a900460ff1661161d576040517f08c379a000000000000000000000000000000000000000000000000000000000815260040161161490611fbf565b60405180910390fd5b61162561162f565b565b600033905090565b600060019054906101000a900460ff1661167e576040517f08c379a000000000000000000000000000000000000000000000000000000000815260040161167590611fbf565b60405180910390fd5b61168e611689611627565b6110aa565b565b6000819050919050565b6116a381611690565b82525050565b60006020820190506116be600083018461169a565b92915050565b600073ffffffffffffffffffffffffffffffffffffffff82169050919050565b60006116ef826116c4565b9050919050565b6116ff816116e4565b82525050565b600060208201905061171a60008301846116f6565b92915050565b6000604051905090565b600080fd5b600080fd5b61173d81611690565b811461174857600080fd5b50565b60008135905061175a81611734565b92915050565b6000602082840312156117765761177561172a565b5b60006117848482850161174b565b91505092915050565b611796816116e4565b81146117a157600080fd5b50565b6000813590506117b38161178d565b92915050565b600080600080608085870312156117d3576117d261172a565b5b60006117e1878288016117a4565b94505060206117f2878288016117a4565b9350506040611803878288016117a4565b9250506060611814878288016117a4565b91505092959194509250565b6000602082840312156118365761183561172a565b5b6000611844848285016117a4565b91505092915050565b600060608201905061186260008301866116f6565b61186f60208301856116f6565b61187c604083018461169a565b949350505050565b60008115159050919050565b61189981611884565b81146118a457600080fd5b50565b6000815190506118b681611890565b92915050565b6000602082840312156118d2576118d161172a565b5b60006118e0848285016118a7565b91505092915050565b7f4e487b7100000000000000000000000000000000000000000000000000000000600052601160045260246000fd5b600061192382611690565b915061192e83611690565b9250828203905081811115611946576119456118e9565b5b92915050565b6000608082019050611961600083018761169a565b61196e602083018661169a565b61197b604083018561169a565b611988606083018461169a565b95945050505050565b600082825260208201905092915050565b7f496e697469616c697a61626c653a20636f6e747261637420697320616c72656160008201527f647920696e697469616c697a6564000000000000000000000000000000000000602082015250565b60006119fe602e83611991565b9150611a09826119a2565b604082019050919050565b60006020820190508181036000830152611a2d816119f1565b9050919050565b6000819050919050565b600060ff82169050919050565b6000819050919050565b6000611a70611a6b611a6684611a34565b611a4b565b611a3e565b9050919050565b611a8081611a55565b82525050565b6000602082019050611a9b6000830184611a77565b92915050565b7f4f776e61626c653a206e6577206f776e657220697320746865207a65726f206160008201527f6464726573730000000000000000000000000000000000000000000000000000602082015250565b6000611afd602683611991565b9150611b0882611aa1565b604082019050919050565b60006020820190508181036000830152611b2c81611af0565b9050919050565b7f4e487b7100000000000000000000000000000000000000000000000000000000600052604160045260246000fd5b7f4e487b7100000000000000000000000000000000000000000000000000000000600052603260045260246000fd5b6000604082019050611ba660008301856116f6565b611bb3602083018461169a565b9392505050565b6000611bd5611bd0611bcb84611a34565b611a4b565b611690565b9050919050565b611be581611bba565b82525050565b600081519050919050565b600082825260208201905092915050565b6000819050602082019050919050565b611c20816116e4565b82525050565b6000611c328383611c17565b60208301905092915050565b6000602082019050919050565b6000611c5682611beb565b611c608185611bf6565b9350611c6b83611c07565b8060005b83811015611c9c578151611c838882611c26565b9750611c8e83611c3e565b925050600181019050611c6f565b5085935050505092915050565b600060a082019050611cbe600083018861169a565b611ccb6020830187611bdc565b8181036040830152611cdd8186611c4b565b9050611cec60608301856116f6565b611cf9608083018461169a565b9695505050505050565b600080fd5b6000601f19601f8301169050919050565b611d2282611d08565b810181811067ffffffffffffffff82111715611d4157611d40611b33565b5b80604052505050565b6000611d54611720565b9050611d608282611d19565b919050565b600067ffffffffffffffff821115611d8057611d7f611b33565b5b602082029050602081019050919050565b600080fd5b600081519050611da581611734565b92915050565b6000611dbe611db984611d65565b611d4a565b90508083825260208201905060208402830185811115611de157611de0611d91565b5b835b81811015611e0a5780611df68882611d96565b845260208401935050602081019050611de3565b5050509392505050565b600082601f830112611e2957611e28611d03565b5b8151611e39848260208601611dab565b91505092915050565b600060208284031215611e5857611e5761172a565b5b600082015167ffffffffffffffff811115611e7657611e7561172f565b5b611e8284828501611e14565b91505092915050565b6000604082019050611ea0600083018561169a565b611ead60208301846116f6565b9392505050565b600060208284031215611eca57611ec961172a565b5b6000611ed884828501611d96565b91505092915050565b7f4f776e61626c653a2063616c6c6572206973206e6f7420746865206f776e6572600082015250565b6000611f17602083611991565b9150611f2282611ee1565b602082019050919050565b60006020820190508181036000830152611f4681611f0a565b9050919050565b7f496e697469616c697a61626c653a20636f6e7472616374206973206e6f74206960008201527f6e697469616c697a696e67000000000000000000000000000000000000000000602082015250565b6000611fa9602b83611991565b9150611fb482611f4d565b604082019050919050565b60006020820190508181036000830152611fd881611f9c565b905091905056fea26469706673582212200da4966f6f975e0f25d91b1721ab68ce31d13a72caf6e28017b3d3c774b6502164736f6c63430008120033",
  "linkReferences": {},
  "deployedLinkReferences": {}
}